:020000040800F2
:1000000070580020ED010008735C0008535300088D
:10001000715C0008791A0008DD6F0008000000001C
:10002000000000000000000000000000E15E000889
:100030002F1B000800000000755C0008E35E00084C
:10004000070200080702000807020008070200086C
:10005000070200080702000807020008070200085C
:100060000702000807020008070200087D1A0008BE
:10007000070200080702000807020008070200083C
:10008000070200080702000807020008070200082C
:10009000070200080702000807020008070200081C
:1000A000070200087D5F0008615F00080702000882
:1000B00007020008070200080702000807020008FC
:1000C00007020008070200080702000807020008EC
:1000D00007020008D16F00080702000807020008A5
:1000E00007020008070200080702000807020008CC
:1000F00007020008070200080702000807020008BC
:1001000007020008070200080702000807020008AB
:10011000070200080702000807020008070200089B
:10012000070200080702000807020008070200088B
:10013000070200080702000807020008070200087B
:10014000070200080702000807020008070200086B
:10015000070200080702000807020008070200085B
:10016000070200080702000807020008070200084B
:10017000070200080702000807020008070200083B
:10018000070200080702000807020008070200082B
:10019000070200080000000007020008070200082C
:1001A000070200080702000807020008070200080B
:1001B00007020008070200080702000807020008FB
:1001C00007020008070200080702000807020008EB
:1001D0000702000807020008DFF80CD000F06AFEF2
:1001E00000480047FD7B0008705800200648804703
:1001F00006480047FEE7FEE7FEE7FEE7FEE7FEE70C
:10020000FEE7FEE7FEE7FEE7515F0008D9010008C0
:100210002DE9F05F0546002092469B46884606463B
:10022000814640241BE0284641464746224600F0CE
:10023000F8FC53465A46C01A914110D3114618464D
:10024000224600F0DFFC2D1A67EB01084F462246DC
:100250000120002100F0D6FC17EB00094E41201EC2
:10026000A4F10104DFDC484631462A464346BDE896
:10027000F09F40EA01039B0703D009E008C9121F61
:1002800008C0042AFAD203E011F8013B00F8013B50
:10029000521EF9D27047D2B201E000F8012B491E7C
:1002A000FBD270470022F6E710B513460A46044613
:1002B0001946FFF7F0FF204610BD421C10F8011B45
:1002C0000029FBD1801A704730B50546002003464F
:1002D00000E05B1C934205D2EC5CC85C201A01D1A3
:1002E000002CF6D130BD00002DE9FF4F087883B017
:1002F0009946FF2805D0491C2D2804D00024002051
:1003000008E000200BE00124F9E700EB800003EB9C
:100310004000491C0B78FF2BF7D104B14042002369
:100320000293147819461D462D2C01D02B2C04D194
:10033000521C2D2C13D000240294AA461478FF2CB2
:100340000FD00A25A3FB057801FB05814FF0000CB7
:1003500003FB0C11521CE3194AEB0101EEE70124E7
:10036000EAE7814453EA010002D019F5C87F06DAB2
:1003700003980021C0E9001107B0BDE8F08F002507
:10038000AE4E2F46DFF8B882184600F06FFDCDE97B
:100390000001B9F1000002DAC9F1000400E00446EE
:1003A0000023A74A1AEB030B42EB045A12E0E007C2
:1003B00007D02A4633463846414600F076FA0746CB
:1003C00088462A4633461046194600F06EFA05461E
:1003D0000E466410002CEAD1DDE90001B9F1000FEE
:1003E0005A46534606DA00F0D2FA3A46434600F03F
:1003F000CEFA05E000F059FA3A46434600F055FAC5
:10040000029A0AB181F00041039AC2E90001B3E700
:100410002DE9FF4F1F468DB0D7E901464FF0FF3859
:100420002E2045464FF000090B90B9696D1C0E98BF
:100430008847396A824688470028F6D1BAF1FF3FDB
:100440000AD024F4D064002E11DDBAF12B0F08D0AD
:10045000BAF12D0F0BD102E0404611B08DE744F404
:100460008064B9696D1C0E9888478246761E69467D
:10047000600501D52D2000E02B208DF8000001F152
:10048000010B0DF1200809E0B9696D1C0E98884731
:1004900082460F9844F40074761E0560002E02DD3B
:1004A000BAF1300FF0D00B998A453ED144F0800468
:1004B00006E00F99681CA9F1010944F40074086072
:1004C000B9696D1C761E0E98884782463028F0D098
:1004D0002BE00B998A4505D1200603D444F0800413
:1004E000761E18E0504606F0E7FE08B30DF1130142
:1004F000761E44F400748B4508D2AAF130000BF844
:10050000010B200607D5A9F1010003E0200602D463
:1005100009F101008146A00502D50F99681C086009
:10052000B9696D1C0E9888478246002ED1DC53E0D5
:10053000002E51DDBAF1650F02D0BAF1450F4BD153
:10054000A00549D5B9696D1C24F44074761E0E9837
:1005500088478246002E0CDD2B2804D0BAF12D0FDF
:1005600007D144F48074B9696D1C0E98884782469F
:10057000761EE00501D52D2100E02B2108F8011B96
:10058000CDF82C8021E00DF12901761E44F4007491
:1005900088450CD2AAF1300010F0FF0088F8000066
:1005A00002D10B99884509D908F1010806E0E00558
:1005B00001D5244801E042F20F708146B9696D1CF3
:1005C0000E98884782460F980560002E04DD50463D
:1005D00006F072FE0028D6D1F9690E988847FF20F0
:1005E0008BF8000088F800000020069007904B462A
:1005F0006A4608A906A8FFF777FEA00502D46FF0A7
:1006000001002AE714F0240F0AD0E00714D1DDE935
:1006100006123868031D3B600068C0E900120BE059
:10062000DDE9060100F0BCFA0146E00704D13868B4
:10063000021D3A600068016028460EE70000144081
:100640000000F03FF1D8FFFFF0B480EA0102D40FC0
:100650004200B2EB410F02D20246084611464A0060
:1006600042D0C30DDDB2C1F3C752AD1A202D35DA29
:10067000C1F3160141F4000204B15242C5F1200653
:1006800002FA06F12A411044B3EBD05F23D0C4B183
:10069000012DA0EBC35009DCF0BC4FF0004202EA90
:1006A000C352DBB200F5000000F055BB400000F182
:1006B000807000EBC350A0F1807040EAD170490017
:1006C00009E0490841EAC071A0EBC35000F5000001
:1006D000400800EBC350F0BC00F034BB6142012283
:1006E00002EB4101001BF6E7F0BC704781F00041CE
:1006F000AAE780F00040A7E780EA010210B502F007
:100700000043400022D04A001FD0010E01EB1261CD
:10071000C0F35600C2F3560240F4000042F4000257
:10072000A0FB022000047F39140400D0401C50EAD2
:10073000124001D44000491EC2B20C0604EBD01096
:10074000401C4008802A02D003E0002010BD20F0A9
:100750000100002900DA0020184310BD2DE9FE4FEA
:10076000804681EA0300C00F0C46009021F0004152
:1007700023F00045B8EB0200A94105D240462146CE
:1007800090461C460B46024623F00040104347D0DB
:10079000270DC7F30A00C3F30A510290401A0190D3
:1007A00040286BDAC3F3130040F4801B0098924694
:1007B00020B10023D2EB030A63EB0B0B01985946DF
:1007C000C0F14002504600F01DFA06460D46504664
:1007D0005946019A00F035FA10EB080061410024F7
:1007E00087EA115284EAE7731A4340D0009A62B351
:1007F000019A012A4FEA075215DC001B61EB020146
:100800004FF0004202EA0752CDE90042001C41F5D8
:10081000801132462B4600F0DBFA03B0BDE8F08FC2
:1008200040462146F9E7001B61EB0201001C41F53F
:10083000801300185B412018A2F5001747EB030155
:1008400040EAD570B6196D4111E06D084FEA3606E1
:1008500045EAC0754FEA0752001B61EB0201001C1C
:1008600041F5801149084FEA3000001951413246E4
:100870002B4603B0BDE8F04F00F09BBA0098012270
:1008800040000023D0EB020263EBE07300982146A6
:100890004FEAE074B8EB000061EB0401E9E783F094
:1008A00000435BE781F0004158E72DE9FE4F81EA04
:1008B000030404F0004421F0004100944FF0000BC9
:1008C00023F0004350EA01045ED052EA03045BD0F7
:1008D000C3F30A54C1F30A552C44A4F2F33401942F
:1008E000A0FB0254C1F3130141F48011C3F31303BD
:1008F00043F4801301FB024400FB034E840A970A71
:1009000044EA815447EA8357A4FB076802958D0A9D
:1009100005FB07854FEA932C04FB0C542705029D29
:100920004FEA065847EA1637B5EB08056EEB070C99
:10093000870E920E47EA811742EA8312A7FB020153
:10094000B6EB0B0164EB00042B0D43EA0C335E188D
:1009500044EB1C50DA465146E7FB0201C5F3130491
:100960004FEA0B3343EA14534FEA0432019C43EA43
:100970000603A4F10C040294009CCDE900B400F03D
:1009800027FA03B0BDE8F08F00200146F9E72DE912
:10099000F04D81EA030404F0004B21F000451446B9
:1009A0004FF0000A23F0004150EA050220D054EA3B
:1009B00001021DD0C5F30A570246C5F31303C1F364
:1009C0001300C1F30A5640F4801543F48013A7EBDB
:1009D0000608101BD64608F2FD3873EB050002D35B
:1009E00008F1010801E092185B41B8F1000F03DA49
:1009F00000200146BDE8F08D00204FF4801106462E
:100A000084460EE0171B73EB050705D3121B63EB3F
:100A1000050306434CEA010C49084FEA30009218DE
:100A20005B4150EA0107EDD152EA030012D082EA9D
:100A3000040083EA0501084305D0101BAB4106D230
:100A40000122002306E000224FF0004302E06FF095
:100A5000010253101AEB06004CEB085110EB0A0090
:100A600041EB0B01BDE8F04D00F0A3B90EB5C10F8D
:100A700080EAE0700844CA07002140F233438DE861
:100A80000E000A460B4600F0A3F903B000BD0EB5F8
:100A900040F2334102910021CDE900110A460B4694
:100AA00000F096F903B000BD70B5C1F30A5201F031
:100AB00000450024C1F3130140F2FF3341F48011DB
:100AC0009A4201DA002070BD40F233439A42A2F20A
:100AD000334203DC524200F0A4F800E090402C4383
:100AE000F1D0404270BDC1F30A5210B5C1F31301F9
:100AF00040F2FF3341F480119A4201DA002010BD28
:100B000040F233439A42A2F2334203DC524200F0F5
:100B100088F810BD904010BD00F0004230F0004059
:100B20000AD0C10D01F56071C0F3160042EA01510F
:100B3000C20840071143704700200146704700007B
:100B400030B5041E71F1000404DB4FF00044404254
:100B500064EB0101141E73F1000405DB1C464FF029
:100B60000043524263EB04038B4208BF824230BD14
:100B700030B5041E71F1000404DB4FF00044404224
:100B800064EB0101141E73F1000405DB1C464FF0F9
:100B90000043524263EB0403994208BF904230BDC8
:100BA00001F0004330B421F0004150EA010206D0C8
:100BB0000A0DA2F56072C1F31301002A02DC30BCF9
:100BC00000207047440F44EAC104C100E01830BC63
:100BD00000EBC25000F0B6B830B50B46014600201D
:100BE0002022012409E021FA02F59D4205D303FAEF
:100BF00002F5491B04FA02F52844151EA2F1010270
:100C0000F1DC30BD202A04DB203A00FA02F100209A
:100C100070479140C2F1200320FA03F3194390403A
:100C20007047202A04DB203A21FA02F000217047A5
:100C300021FA02F3D040C2F1200291400843194644
:100C40007047202A06DBCB17203A41FA02F043EA2C
:100C5000E07306E041FA02F3D040C2F12002914075
:100C6000084319467047426842B1016811F8013BD8
:100C700023B1521EC0E90012184670470121C1601D
:100C8000881E704742685AB1C368016843B98368D7
:100C90008B4205D0491E521CC0E90012002070474B
:100CA0004FF0FF30704700000FB4002300B589B04B
:100CB0000CA900910B996FF00042CB601E4B06937C
:100CC0001E4B07930423CDE901321D4A08920246C8
:100CD0006B460020FFF79CFB09B05DF814FB70B574
:100CE00086B006464FF0FF300091CDE901010020AB
:100CF00015460C4604903246694604A8FFF7D4FF17
:100D000002460498211825B108B1084600E02046A3
:100D10002860049800280DD0002A02DD009888423F
:100D200008D0081B0094CDE901043246694604A8A6
:100D3000FFF7BAFF06B070BD670C0008850C00080D
:100D4000D90E00080029A8BF7047401C490008BF01
:100D500020F00100704710B4B0FA80FC00FA0CF0EB
:100D600050EA010404BF10BC704749B1CCF1200423
:100D700021FA04F411FA0CF118BF012121430843B0
:100D8000A3EB0C01CB1D4FEA00614FEA102042BFDC
:100D9000002010BC704700EBC35010440029A4BFD2
:100DA00010BC7047401C490008BF20F0010010BC77
:100DB000704710B5141E73F1000408DA401C41F1AD
:100DC000000192185B411A4301D120F0010010BDCF
:100DD0002DE9F04D92469B4611B1B1FA81F202E045
:100DE000B0FA80F220329046FFF70CFF04460F461F
:100DF00040EA0A0041EA0B0153465A46084313D021
:100E0000114653EA010019D0C8F140025046FFF7DD
:100E100008FF05460E46504659464246FFF7F2FE89
:100E2000084305D0012004E020463946BDE8F08D96
:100E30000020054346EAE0762C4337430A986305D1
:100E4000E40AA0EB08000022FD0A44EA47540A30F5
:100E500002D500200146E9E7010510196941DDE9E5
:100E6000084500196941BDE8F04DA2E70EB540F212
:100E7000334202920022CDE900221346FFF7A8FF79
:100E800003B000BDC1F30A52C1F3130140F2FF33B6
:100E900041F480119A4202DA00200146704740F284
:100EA00033439A42A2F2334202DC5242FFF7B9BE08
:100EB000FFF7A8BE064C074D06E0E06840F00103CE
:100EC00094E8070098471034AC42F6D3FFF788F94E
:100ED000D0250108F0250108C0B24FF4F05100F010
:100EE00001B800007F2801D9002208E0064A02EB81
:100EF0005002C007127800D1120902F00F0201203F
:100F00009040084070470000909D00082DE9F04790
:100F100001264FEA42084FEA51090024002506EB5A
:100F2000510C6FF0010606EB510E00BFADB266002A
:100F3000AC4228D250F8267050F83520E900043130
:100F400040F8262040F8357046F0010250F822A003
:100F5000475840F8227040F801A004EB0C0105EB63
:100F60000C0750F831A050F8372040F83120C90064
:100F700040F837A0FF000431043750F801A0C259EF
:100F8000425040F807A000EB86014D448A6850F8B3
:100F900035608E6040F83520ED000435CA6846594A
:100FA000CE604251A21C03EB080194B21D880B468F
:100FB000744588BFBDE8F087B8E7B0B582B00C468D
:100FC00005468389426801888078012805D128690F
:100FD0000090204600F0EAF902E0204600F0E2F836
:100FE000E87801281CBF02B0B0BDAB68EA89298847
:100FF000204602B0BDE8B040FFF788BF4AF2D05C9F
:10100000FF29C0F6000CC0F804C00180C3708270D4
:1010100049F6D0524FF0FF03C0F600020EDDB1F5E5
:10102000806F16DB29D0B1F5805F2BD0B1F5006F52
:1010300041D102324FF06851022337E03F2913DCDF
:10104000102923D0202936D1FE324FF0745180234D
:101050002CE0B1F5807F20D0B1F5007F2BD10E328E
:101060004FF06C51082321E040291BD0802922D168
:101070003E324FF07051202318E006324FF06A5193
:10108000042313E04FF0665101230FE002F5FF72D5
:101090004FF076514FF4807308E01E324FF06E51DE
:1010A000102303E07E324FF072514023C3818381CD
:1010B00000230161826058B2704700002DE9F043BF
:1010C00081B00546002090460C46B0EB920F4CD004
:1010D0004FEA9800C0F10009D5E900070146FFF783
:1010E0000BFB064638463946FFF706FB01463046FD
:1010F000FFF7AAFA07F0B6F82060D5E90206014624
:10110000FFF7FAFA074630463146FFF7F5FA01468F
:101110003846FFF799FA07F0A5F86060D5E90406AC
:101120000146FFF7E9FA074630463146FFF7E4FA91
:1011300001463846FFF788FA07F094F8A060D5E931
:1011400006060146FFF7D8FA074630463146FFF754
:10115000D3FA01463846FFF777FA07F083F8E060E4
:101160001034203519F10109B6D118F0030016D05A
:10117000474200BFD5E900060146FFF7BDFA8046A9
:1011800030463146FFF7B8FA01464046FFF75CFAB1
:1011900007F068F844F8040B08350137EAD101B0CC
:1011A000BDE8F0832DE9F04F8FB0CDE90232009019
:1011B000480809910B900020B0EB510F56D00B98C6
:1011C000DDF800B0DDF80C90C1000E9141420298AC
:1011D000C00008900E980D910BEB00065BF80050D4
:1011E0000C96DBE9007829463846FFF72DFAD6F849
:1011F00004A0D9E90041CBF8000040460A915146CD
:10120000FFF722FACBF8040038462946FFF76EFABA
:10121000054640465146FFF769FA074620462946EB
:10122000A846FFF769FA0A9D064639462846FFF7A1
:1012300063FA01463046FFF707FA0E994BF80100B2
:1012400020463946FFF758FA064628464146FFF73A
:1012500053FA01463046FFF749FADDE90C210BF15C
:10126000080B5060089801318144B3D1099E0B9A54
:10127000062E78D3104600BF01905008DDF800908C
:10128000D7004FF0000800234FEAC00B05900298EA
:101290004000029080B20490CDE90A72039906934F
:1012A00051F833000D90D800043008580C90CDE967
:1012B000079800BF09EB0B0659F80B700E96D9E999
:1012C000004A39462046FFF7BFF97568C9F80000A3
:1012D00050462946FFF7B8F9C9F8040020463946B8
:1012E000FFF704FA074650462946FFF7FFF90D9E1F
:1012F000044639463046FFF7FFF9DDF830A00546D1
:1013000021465046FFF7F8F901462846FFF79CF9B9
:1013100049F80B0030462146FFF7EEF904465046E7
:101320003946FFF7E9F901462046FFF7DFF9DDE925
:101330000A72099E0E999044B9444860B045B9D3E9
:101340000498069BDDF82080DDF81C900344059886
:1013500008F1010809F1080980459FD30199059A10
:101360004808052988D8009DE6B10024D5E9008AFF
:10137000D5E9029750463946FFF7B8F9E86040468C
:101380004946FFF7B3F9A86050463946FFF75CF9C4
:10139000686040464946FFF757F902342860103527
:1013A000B442E3D30FB0BDE8F08F00002DE9F04F59
:1013B0008FB0CDE9023200904808099105900020D5
:1013C000B0EB510F54D0DDF81490DDF800B0039C61
:1013D0004FEAC9000E900298C0000B900E980BEBDC
:1013E00000065BF800500D96DBE900782946384688
:1013F000FFF72AF9D6F804A0D4E90061CBF8000081
:1014000040460C915146FFF71FF9CBF804003846CF
:101410002946FFF76BF9054640465146FFF766F946
:10142000074630462946AA46FFF766F90C9D8046D6
:1014300039462846FFF760F901464046FFF756F95E
:101440000E994BF8010030463946FFF755F906462C
:1014500028465146FFF750F93146FFF7F5F80D9948
:101460000BF1080BB9F1010948600B980444B5D1A0
:10147000099F062F77D33846059A0190DDF8009032
:101480004FF0000800235008D6004FEAC00B05902B
:1014900002984000029080B20490CDE90A6200BF39
:1014A0000399069351F833000D90D8000430085882
:1014B0000C90CDE9079800BF09EB0B0659F80B70AB
:1014C0000E96D9E9004A39462046FFF7BDF87568FF
:1014D000C9F8000050462946FFF7B6F8C9F80400DD
:1014E00020463946FFF702F9074650462946FFF7DE
:1014F000FDF80D9E044639463046FFF7FDF8DDF84D
:1015000030A0054621465046FFF7F6F8014628462A
:10151000FFF7ECF849F80B0030462146FFF7ECF8EE
:10152000044650463946FFF7E7F82146FFF78CF8A6
:10153000DDE90A62099F0E999044B1444860B845BC
:10154000BAD30498069BDDF82080DDF81C90034494
:10155000059808F1010809F108098045A0D301990F
:1015600048080B2988D8009C57B3DDF86080002616
:10157000D4E9009BD4E902A558462946FFF7B6F8FE
:101580004146FFF7B9F8E06048465146FFF7AEF82C
:101590004146FFF7B1F8A06028465946FFF754F8D6
:1015A0004146FFF7A9F8606048465146FFF74CF8FE
:1015B0004146FFF7A1F8023620601034BE42D7D36F
:1015C0000FB0BDE8F08F10B5846AE16D11F0500FD7
:1015D00006D0E16DC90630D5204601F029FA10BDCC
:1015E000E06D40F40070E06520680168090712D5DD
:1015F00003F070FFE8B12068C068800419D4E06D82
:1016000020F48070E065E06DC00412D4E06D40F01D
:101610000100E0650DE0C06880070AD4E06D20F4A9
:101620008070E065E06DC00403D4E06D40F001001F
:10163000E065204601F0FAF910BD616D496BBDE827
:101640001040084710B5806AC16D41F04001C16586
:10165000016E41F00401016601F0EAF910BD10B518
:10166000806A01F0E4F910BD70B50446206803F00B
:1016700025FFA0BB206881681D4A114209D0E06D9A
:1016800040F01000E065206E40F00100206601206F
:1016900070BD8168164E7F3E3140491C816001F06B
:1016A00055FE05461CE003F009FF20B9206881685B
:1016B0003140491C816001F049FE401B02280FD9CE
:1016C00020680068C043C0070AD0E06D40F01000F9
:1016D000E065206E40F001002066012070BD04E04E
:1016E00020680168C943C907DDD10020F6E7000082
:1016F0003F00008008B50021154803F025FA0021BD
:10170000144803F021FA0421124803F01DFA0821BD
:10171000104803F019FA4FF400720F490F4801F016
:1017200007FB03F01BFF002003F0F4FE0CA22821AE
:101730000D4805F055FC0C48009000234FF6FF7251
:101740007021882000F04EFABDE8084003F002BE88
:1017500098010020E4010020A4040020680000207B
:1017600048454C4C4F210000240400202DE9F05F37
:101770002DED088BADF5015D00254FF0FF380127F9
:10178000DFF894B29FEDA5AADFEDA5AA9FEDA5BA5B
:10179000DFEDA5BAA54931F8150000287DD000205D
:1017A00021F8150035B1012D0CD0022D12D0032DDA
:1017B00043D12AE09E4908708BF80070642001F044
:1017C000CDFC3AE09A4807708BF80070642001F075
:1017D000C5FC32E097480068C16A4FF4A0429142CC
:1017E00005D2C16A491C08EB4101C16207E0816A68
:1017F000914204D2816A491C08EB410181628BF855
:101800000070642001F0AAFC17E08A480068C16AF1
:101810000A2905D9C16A491C08EB5101C16207E0D8
:10182000816A0A2904D9816A491C08EB5101816245
:101830008BF80070642001F091FC4FF400642146A5
:101840000DF5C2594846FEF72DFD21460DF5825093
:10185000FEF728FD21460DF50460FEF723FD214625
:1018600010A8FEF71FFD00260021734A4FF4007AEE
:1018700032F8110049F82100491C5145F8D30024E1
:101880009FED6E8B9FED6F9B0DF582590DF5C2504C
:1018900050F82400FFF7FBF800E083E053EC182B2E
:1018A000FFF703F853EC192BFEF7FFFFFFF778F96A
:1018B00049F82400641C5445E8D30DF504645246ED
:1018C00021460DF5825000F035F90020A14609EBC4
:1018D000800191ED000A09EB8601D1ED000AB4EE1A
:1018E000E00AF1EE10FA00DD86B2401C5045EED35E
:1018F00050480468A06A401CFFF7C9F841EC180B77
:10190000E06A401CFFF7C3F841EC100B53EC102BBE
:101910009FED4E0B51EC100BFFF739F853EC182BE1
:10192000FFF735F8FFF73CF908EE100A00EE106AF1
:10193000B8EE400A20EE080ADFED460A60EE208A83
:101940003B48007810B1012858D12CE003F01EFD6F
:10195000F0EE4A1AB0EE6A1AF0EE4B0AB0EE6B0ADD
:101960004FF480710DF5825000F04EFA18EE900A97
:10197000FFF7D2F881468A4618EE100AFFF7CCF836
:101980008DE8030634A228213A4805F029FB39489E
:10199000002300904FF478421946184600F022F9CF
:1019A00003F0D8FC2AE003F0F1FCF0EE4A1AB0EEA6
:1019B0006A1AF0EE4B0AB0EE6B0A4FF4807148469B
:1019C00000F022FA18EE900AFFF7A6F881468A4640
:1019D00018EE100AFFF7A0F88DE803061EA22821D2
:1019E000244805F0FDFA2348002300904FF4784284
:1019F0001946184600F0F6F803F0ACFC6D1CEDB289
:101A0000042DFFF4C7AE0DF5015D6420BDEC088B1D
:101A1000BDE8F05F01F0A2BB140000206666663FDF
:101A20003333733FCDCCCC3DCDCC4C3E3400002085
:101A30003C00002030020020A40400206666666698
:101A400066660A40000000000000303F0000000011
:101A5000D012A3410000003B5361467265713A25E4
:101A60002E3166487A204261467265713A252E31E0
:101A700066487A0024040020FEE70000014801F0D7
:101A80005EBA0000D40000200D4902688A4201D2EB
:101A90000C4901E00B492031D2B2083A1423B2FBC1
:101AA000F3F2436C23F00303194481640549803148
:101AB000C16402F01F0201219140016570470000DE
:101AC00008040240000802400179074A491E02EB5F
:101AD00081024265044A4032826501F01F02012101
:101AE0009140C165704700000009024030B5D0E95F
:101AF00013546C60446D002C02D0D0E916546C6015
:101B000090F8444004F01F050124AC40056C6C6063
:101B1000046863608368102B04D0036899600068D0
:101B2000C26030BD03689A600068C16030BD704714
:101B300072B6FEE72DE9F04107460E461446E00076
:101B400005F0BAFA0546280047D000219FED230A88
:101B500001200FE007EB8102D2ED000A05EBC10284
:101B6000C2ED000A00EB410205EB820282ED000AA1
:101B7000491C89B2A142EDD3012300222146184815
:101B8000FFF73CFA29461648FFF717FA2246314676
:101B90002846FFF793FA00EE104AD6ED000AB8EE99
:101BA000400A80EE801A86ED001A002162080DE0DE
:101BB00000EE102A06EB8100B8EE400AD0ED000AD4
:101BC00080EE801A80ED001A491C89B2A142EFD341
:101BD0002846BDE8F04105F02BBAFEE70000000002
:101BE000581800202DE9FF5F0446DDF838800F46C5
:101BF00093469A4600949AE0802837D20D2805D063
:101C0000202807D920381FFA80F905E0009C1037FA
:101C1000BFB228E04FF000090026002506EB0910AE
:101C2000039046490398095C8020E840014207D0B0
:101C3000B81981B2601980B25A4600F0DCF808E0A9
:101C4000D34506D0B81981B2601980B2524600F06F
:101C5000D2F86D1CEDB2082DE3D3761CF6B2102E2F
:101C6000DBD30834A4B208F1010860E04FF00009AA
:101C7000334909EB091098F8003011F810209A4206
:101C80004AD101EB40000290407898F80110884258
:101C900042D100250026029800EB450001900198F2
:101CA00081788020F040014207D0781981B2A019D4
:101CB00080B25A4600F09FF808E0D34506D0781964
:101CC00081B2A01980B2524600F095F8761CF6B2A7
:101CD000082EE4D300260198C1788020F04001420C
:101CE00008D0781981B2A019083080B25A4600F0A5
:101CF00082F809E0D34507D0781981B2A0190830DD
:101D000080B2524600F077F8761CF6B2082EE2D385
:101D10006D1CEDB2102DBDD309F101091FFA89F92F
:101D2000B9F1320FA4D308F102081034A4B298F824
:101D3000000000287FF460AFBDE8FF9FB883000873
:101D40002A9100082DE9F84F06460F46144698469A
:101D50003946304603F040FDA51BA8EB070B4FF0BA
:101D6000FF39002D02DB4FF0010801E0C8466D424B
:101D7000BBF1000F02DB4FF0010901E0CBF1000BDA
:101D8000680000904FEA4B0A5D451ADDAAEB050496
:101D90004FF0000B11E0394630460A9A00F02BF85C
:101DA000002C04DB0098241A07EB090087B2544486
:101DB00006EB080086B20BF1010BAB45EBDDBDE88D
:101DC000F88F0098A0EB0B04002511E0394630464F
:101DD0000A9A00F010F8002C04DBA4EB0A0406EBCE
:101DE000080086B20098044407EB090087B26D1C16
:101DF0005D45EBDDE3E710B5144603F0EDFC20464E
:101E0000BDE8104003F0FCBC2DE9F04F2DED088B30
:101E1000A5B004468A46B0EE60AAF0EE419AB0EE54
:101E2000619A10EE100AFEF777FE9FEDFE8B53ECE1
:101E3000182BFEF73AFDFEF756FE1FFA80F91AEE50
:101E4000100AFEF769FE9FEDF9AB53EC1A2BFEF773
:101E50002CFDFEF748FE81B21B9119EE900AFEF7A9
:101E60005BFE53EC182BFEF720FDFEF73CFE80B224
:101E70001A9019EE100AFEF74FFE53EC1A2BFEF7DC
:101E800014FDFEF730FE80B21990052018901B99C2
:101E90001998A0EB010B04209BFBF0F080B2179087
:101EA000002016904FF6FF70159014901F2013908D
:101EB0004FEA8A0005F000F9074600209FEDDDBAE1
:101EC0000CE004EB800191ED000A20EE0B0ABCEE61
:101ED000C00A10EE101A47F82010401C5045F0D3ED
:101EE000D548007810B9169803F014FB3D68A84651
:101EF000002008E057F82010A94200D90D464145BE
:101F000000D28846401C5045F4D301240026CA481C
:101F1000408884427ED25645FCD24846FEF7B7FD43
:101F2000CDE9231041EC180B1A98A0EB0900FEF73D
:101F30009DFDCDE9211041EC190B5046FEF7A7FDA0
:101F4000CDE91F1041EC1A0B3046FEF7A0FDCDE99C
:101F50001D1053EC1A2BFEF71AFD53EC192BFEF74C
:101F6000A4FC53EC182BFEF7F9FBFEF7BCFD83B283
:101F7000B249601E024631F8200083427DD2002E15
:101F80004BD01B98FEF783FD41EC180B5846FEF72B
:101F90006DFD41EC190BA5EB0800FEF778FD41EC57
:101FA0001A0B57F82600281AFEF771FD53EC1A2B6E
:101FB000FEF7EDFC53EC192BFEF777FC53EC182BD6
:101FC000FEF7CCFBFEF78FFD80B20290DDE9231017
:101FD00041EC180BDDE9211041EC190BDDE91F1074
:101FE00041EC100BDDE91D1053EC102BFEF7CFFC7C
:101FF00053EC192BFEF759FC53EC182BFEF7AEFBF4
:10200000FEF771FD82B2159800908B48029BC18843
:10201000808800E05CE0FFF795FEDDE9231041ECED
:10202000190BDDE9211041EC180BDDE91F1041EC23
:10203000100BDDE91D1053EC102BFEF7A8FC53EC40
:10204000182BFEF732FC53EC192BFEF787FBFEF73B
:102050004AFD0146784881801B98FEF718FD41EC47
:10206000180B5846FEF702FD41EC190BA5EB0800D2
:10207000FEF70DFD41EC1A0B00E016E057F82600C4
:10208000281AFEF704FD53EC1A2BFEF780FC53ECE4
:10209000192BFEF70AFC53EC182BFEF75FFBFEF73B
:1020A00022FD6549C880761C31E7634B1B786BB114
:1020B00064B1169B009301EB840331F824C001EB5B
:1020C00082015B8849886246FFF73CFE641C1EE77C
:1020D000844218D25848007898B194B1169857495C
:1020E000009001EB840031F824204388601E844670
:1020F00001EB800031F82CC0408801466046FFF7B4
:1021000021FE641C03E756457DD2EEB31B98FEF713
:10211000BEFC41EC180B5846FEF7A8FC41EC190B2D
:10212000A5EB0800FEF7B3FC41EC1A0B57F82600AC
:10213000281AFEF7ACFC53EC1A2BFEF728FC53ECE4
:10214000192BFEF7B2FB53EC182BFEF707FBFEF73B
:10215000CAFC80B202904846FEF799FC41EC180B8D
:102160001A98A0EB0900FEF781FC41EC190B5046D0
:10217000FEF78DFC41EC1A0B3046FEF788FC53EC61
:102180001A2BFEF704FC00E012E053EC192BFEF7CB
:102190008CFB53EC182BFEF7E1FAFEF7A4FC82B29D
:1021A000159800902448029BC1888088FFF7CAFDDB
:1021B0004846FEF76CFC41EC180B1A98A0EB09009E
:1021C000FEF754FC41EC190B5046FEF760FC41EC65
:1021D0001A0B3046FEF75BFC53EC1A2BFEF7D7FBCD
:1021E00053EC192BFEF761FB53EC182BFEF7B6FAF4
:1021F000FEF779FC104988801B98FEF748FC41ECFB
:10220000180B584600E02FE0FEF730FC41EC190BAC
:10221000A5EB0800FEF73BFC41EC1A0B57F8260033
:10222000281A0DE0000000000000744000000000CB
:1022300000006E4000007A443E000020A408002008
:10224000FEF725FC53EC1A2BFEF7A1FB53EC192BE0
:10225000FEF72BFB53EC182BFEF780FAFEF743FC3E
:102260007349C880761C52E60024A5EB0800FEF7EF
:102270000EFC80461C9148E04846FEF708FC41EC05
:10228000180B1A98A0EB0900FEF7F0FB41EC190BB4
:102290005046FEF7FCFB41EC1A0B2046FEF7F7FB1D
:1022A00053EC1A2BFEF773FB53EC192BFEF7FDFAD8
:1022B00053EC182BFEF752FAFEF715FC5D4E26F88C
:1022C00024001B98FEF7E3FB41EC1A0B5846FEF77F
:1022D000CDFB41EC190B1C9957F8240041EC188BED
:1022E000281AFEF7D4FB53EC182BFEF750FB53ECE7
:1022F000192BFEF7DAFA53EC1A2BFEF72FFAFEF73A
:10230000F2FB06EB84014880641C5445B4D3484E6C
:10231000A6F802A01898FEF7BAFB41EC100B1C9926
:1023200053EC102B41EC118B51EC110BFEF72FFBF2
:10233000FEF736FC08EE100A002426E000EE105AE4
:10234000F8EE400A00EE104AB8EE400A48EE400AA5
:1023500080EE8B0A10EE100AFEF7DEFBCDE90001DD
:1023600035A2052103A804F03BFE03A800901B98AA
:102370001799083804FB010081B2A9F1300080B23E
:10238000169B149AFFF72EFC641C18988442D5D330
:10239000139800904A4648461B9B1999FFF7D2FCB8
:1023A000139800901B9919981A9A44184FEA5408E8
:1023B000434641464846FFF7C5FC139800901B9DD5
:1023C000A9F10300ED1C82B2ABB248461B99FFF79E
:1023D000B9FC1398009009F1030082B2ABB24846F1
:1023E0001B99FFF7AFFC139800906FF002001A9D45
:1023F00000EB540083B2ED1EAAB241461A98FFF7D3
:10240000A1FC13980090032000EB540083B2AAB201
:1024100041461A98FFF796FC307808B901203070D1
:10242000384604F005FE25B0BDEC088BBDE8F08F02
:102430003E000020A4080020252E32660000000087
:102440002DE9F04F9DB004460D464FF0000A94F878
:102450005800012811D0012084F85800002719974E
:102460001A9720684FF0A04BDFF82881DFF82891F9
:102470004A4E584505D1029609E002201DB0BDE83C
:10248000F08F404502D1CDF8089000E00297029805
:1024900040B1029803F01AF80190206803F016F892
:1024A00040B109E0E06D40F02000E06584F858702C
:1024B0000120E3E7019848B1E06D40F02000E065BD
:1024C0004FF0010A84F858705046D7E72068584505
:1024D00001D0B04201D1324800E03248324B296885
:1024E00040F61F7281B3816894F838C021F46041CE
:1024F00041EA4C31D5F804C041EA0C018160216801
:10250000594501D0B14208D1DBF80810C1F30001F0
:10251000B368C3F3000319430CE0D8F80810C1F303
:102520000001D9F80860C6F3000631439B68C3F385
:10253000000319430029C5D1AB6829681943836892
:10254000934319438160BDE7FFE7816821F460414F
:1025500081602168594501D0B14208D1DBF80810EB
:10256000C1F30001B368C3F3000319430CE0D8F8CA
:102570000810C1F30001D9F80850C5F3000529433C
:102580009B68C3F30003194300299BD181689143E1
:10259000816097E7000400500005005000010050E2
:1025A0000003005000070050000600502DE9F84FCE
:1025B00004460D46002600270097DFF8389494F86B
:1025C0005800012811D04FF0010884F85880206885
:1025D00002F078FF58B1E06D40F02000E065012680
:1025E00084F858703046BDE8F88F0220FBE7A888D1
:1025F00021682A6800F4407301EB93110B6B00F023
:102600001F004FF01F0C0CFA00FCC2F3846223EA97
:102610000C03824013430B63206802F053FF824691
:10262000206802F047FF5AEA000A3CD1AA68B2F1DA
:10263000004F39D02968206802F054FF20684169B2
:1026400021F00041416120686A69C168C1F3C1019C
:1026500049008A402969042934D02B6800EB8100A5
:10266000016EDFF894C303F0F84301EA0C01134351
:10267000194341F00041016620682A69A96900EB0D
:102680008200026E22F080720A430266297F20686F
:102690002A69012913D0002100EB8200026E22F08A
:1026A00000720A4302667CE029680022206802F07A
:1026B00019FF2068416941F000414161C3E74FF0D3
:1026C0000071E9E7002102F0EFFE40036ED0002127
:1026D000206802F0E9FE90FAA0F0B0FA80F12868D4
:1026E00042036AD090FAA0F0B0FA80F0814204D19F
:1026F00000221146206802F004FF0121206802F048
:10270000D3FE40035CD00121206802F0CDFE90FA98
:10271000A0F0B0FA80F12868420358D090FAA0F0F7
:10272000B0FA80F0814204D100220121206802F039
:10273000E8FE0221206802F0B7FE40034AD00221E1
:10274000206802F0B1FE90FAA0F0B0FA80F128689B
:10275000420346D090FAA0F0B0FA80F0814204D152
:1027600000220221206802F0CCFE0321206802F042
:102770009BFE400338D00321206802F095FE90FABA
:10278000A0F0B0FA80F12868420334D090FAA0F0AB
:10279000B0FA80F0814204D100220321206802F0C7
:1027A000B0FE206802F08AFE40B3B1E0002120684C
:1027B00002F07AFEC0F3846191E7C0F3846095E78C
:1027C0000121206802F070FEC0F38461A3E7C0F32A
:1027D0008460A7E70221206802F066FEC0F38461EE
:1027E000B5E7C0F38460B9E70321206802F05CFE1E
:1027F000C0F38461C7E7C0F38460CBE72068EA6870
:1028000029684A4506D150F8B02FC1F312010A4396
:10281000026005E050F8B02FC1F312018A43026054
:10282000E868484574D12868410319D090FAA0F1AE
:10283000B1FA81F1491C01F01F01092931D8410386
:10284000002910D090FAA0F1B1FA81F101F1010153
:1028500001F01F0108FA01F808D1C0F3846109E012
:10286000C0F38461E6E7C0F38461EFE790FAA0F17A
:10287000B1FA81F101F1010101F01F0148EA816122
:1028800002D1C0F3846003E090FAA0F0B0FA80F0C7
:1028900000F1010000F01F0000EB400041EA005190
:1028A00032E04FEA403100290DD090FAA0F1B1FAA0
:1028B00081F101F1010101F01F0108FA01F805D1D0
:1028C000C0F3846106E0C0F38461F2E790FAA0F1FE
:1028D000B1FA81F101F1010101F01F0148EA8161C2
:1028E00002D1C0F3846003E090FAA0F0B0FA80F067
:1028F00000F1010000F01F00A0F10A0000EB400011
:1029000041EA005040F00071AA68206802F0EAFD38
:102910003A482A6802423FF463AE20684FF0A0486C
:10292000374BDFF8E0C0384D404501D0A84201D117
:10293000194600E06146896801F0E071DFF8CC904B
:102940004A4503D0DFF8C8904A4526D15FEA0129FD
:1029500023D4404503D02F4A90427FF441AE4045F6
:1029600002D0A84200D0634641F40000996821F0EB
:10297000E07101439960284828490068B0FBF1F0F4
:10298000401C00EB40008000009002E00098401ED8
:10299000009000980028F9D122E6DFF884904A459B
:1029A00014D15FEAC11911D4A84202D11D4A904244
:1029B000F2D0404502D0A84200D0634641F080707A
:1029C000996821F0E0710143996009E6DFF85890B9
:1029D0004A45E1D14A02DFD4A842DDD0404500D0CB
:1029E000634641F48000996821F0E07101439960E9
:1029F000F6E5000000007F4000F0FF0300000880C3
:102A0000000300500007005000010050000021C3E7
:102A10001000C090000600500C000020400D030084
:102A2000000052C700050050000084CB704770477B
:102A300070470000F8B50446002500260096002CDB
:102A400002D0E06D10B107E00120F8BD204600F093
:102A500017F9266684F8586020688168C1F34071D0
:102A600019B181687B4A1140816020688168C1F397
:102A70000071A1B98168784A114041F080518160AC
:102A8000764877490068B0FBF1F0401C40000090A8
:102A900002E00098401E009000980028F9D12068BC
:102AA0008168C1F3007141B9E16D41F01001E16548
:102AB000216E41F001012166012502F003FDE16D67
:102AC000C90600D430B1E06D40F01000E06501258A
:102AD0002846F8BDE06D20F4807040F00200E0650B
:102AE000206802F0EBFC58BB20684FF0A0435D4A21
:102AF000984201D0904207D19968C1F300019668CD
:102B0000C6F3000631430DE057498968C1F300015F
:102B1000564EB668C6F300063143554EB668C6F346
:102B20000006314361B9984201D0904201D1514829
:102B300000E051486168826822F47C120A43826096
:102B4000E168E06B627F0843A16841EA42310843D3
:102B500094F8241040EA0140012903D1218D491E37
:102B600040EA4140E16A29B101F47871226B0143E6
:102B700042EA01002168CA68404B1A400243CA6019
:102B800020680169626B21F0406111430161206896
:102B900002F098FC0646206802F08CFC064330D117
:102BA000207F94F83810800340EA41012068C26811
:102BB00044F202039A430A43C260206968B1206864
:102BC000016941F480310161206850F8C01F226919
:102BD0006FF30D01114301600AE02068016921F4DF
:102BE00080310161206850F8C01F6FF30D01016052
:102BF00094F84000012813D02068016921F00101F8
:102C00000161606901281CD02068016B21F00F016F
:102C10000163E06D20F0020040F00100E06557E73D
:102C2000D4E911100143D4E9130210430143206891
:102C3000026940F2FC739A43114341F001010161C2
:102C4000DFE72068016B226A21F00F01521E114359
:102C50000163DEE7C0FFFF5FC0FFFF7F0C000020C5
:102C6000400D03000001005000040050000500501A
:102C70000006005000030050000700500740F0FF1E
:102C800070B59CB00546142117A8FDF70BFB542125
:102C900002A8FDF707FB2868B0F1A04F3DD14FF423
:102CA000004002908003139002A800F059FC08B184
:102CB000FEF73EFF1A49C86C40F40050C864C86C67
:102CC00000F400500190C86C40F00200C864C86C69
:102CD00000F00200019001201790032018900026B8
:102CE000199617A90F4800F04BFA104C0E482060B7
:102CF00005206060A660E660802020614000606181
:102D00008000A0612020E0612662204600F07EF96C
:102D100008B1FEF70DFF6C65A5621CB070BD000028
:102D2000001002400004004808000240D4000020C7
:102D30002DE9F04704468946924620684FF0A048A6
:102D40003D4F404501D0B84201D13C4900E03C49EB
:102D5000896801F01F0502F0B5FB10B10220BDE843
:102D6000F08794F85800012808D0012084F8580012
:102D700034492068884203D1012002E00220EEE7B6
:102D80000020401E28424FF0000607D0052D05D038
:102D9000092D03D0012084F85860E0E72046FEF7B3
:102DA00063FC10B184F85860D9E7E06D40F601612A
:102DB000884340F48070E0652068B84206D022491C
:102DC000884202D1DFF8848000E08046804500D050
:102DD0001DB9E06D20F48010E065E06DC00404D5FD
:102DE000206E20F00600206600E02666616D18481F
:102DF000C862616D17480863616D174848632168B0
:102E00001C20086084F858602068416841F0100177
:102E100041602068C16841F00101C16021685346EA
:102E200040314A46606D00F051F921688A680B4BC9
:102E30001A40121D8A6092E7000100500003005002
:102E4000000700500006005000050050000400502C
:102E5000C71500085F16000845160008C0FFFF7F71
:102E600010B5002190F825200123022A03D0042167
:102E7000C163012122E00268146824F00E0414608A
:102E8000826C146824F4807414600268146824F05E
:102E90000104146090F84420046C02F01F0203FA4D
:102EA00002F26260D0E913426260426D32B114688E
:102EB00024F480741460D0E91642626024304370B8
:102EC00000220270084610BD70B5002490F825104D
:102ED00000230122022906D004212430816142709E
:102EE0000370012429E001680D6825F00E050D60CE
:102EF00001680D6825F001050D60816C0D6825F4F1
:102F000080750D6090F84410154601F01F018A404D
:102F1000016C4A60D0E913215160416D31B10A68FA
:102F200022F480720A60D0E91621516080F82550A1
:102F300080F82430816B01B18847204670BDF0B421
:102F4000016C0A6801680B6890F84440042604F09C
:102F50001F0406FA04F5154215D05D0713D50A685B
:102F6000920603D40A6822F004020A6090F8441022
:102F700001F01F0106FA01F5016C4D60016B00299B
:102F800041D0F0BC08474FF0020C0CFA04F6164290
:102F90004FF000074FF0010519D09E0717D50A68BA
:102FA000920605D40A6822F00A020A6080F82550C9
:102FB00090F8441001F01F010CFA01F6016C4E600C
:102FC00080F82470C16A00291DD0F0BC084708268B
:102FD000A640164217D01A0715D50A6822F00E022D
:102FE0000A6090F84410026C01F01F0105FA01F12B
:102FF0005160C56380F8255080F82470416B00292A
:1030000001D0F0BC0847F0BC7047000070B5044622
:10301000002C0DD02A4A2068142190420AD2294A55
:103020000244B2FBF1F189006164274921640BE09D
:10303000012070BD224A52420244B2FBF1F18900E4
:1030400061641F4908392164022184F8251002684F
:1030500047F6F0718A43D4E902131943D4E90435E1
:103060002B431943A3691943E3691943236A19439D
:10307000114301602046FEF707FDA0680025B0F56A
:10308000804F00D16560A16C20790860D4E91310ED
:1030900048606068401E032808D82046FEF714FDEB
:1030A000606D0560D4E91610486002E06565A565AD
:1030B000E5652434A561012060702570002070BD95
:1030C00008040240F8FFFDBF0000024070B504464E
:1030D000002594F8240001280CD0012084F8240055
:1030E00094F825600020012E06D084F824000225E3
:1030F000284670BD022070BD022684F82560E0637A
:103100002068066826F0010606602046FEF7EEFC01
:10311000206B28B12068016841F00E01016009E0D0
:103120002068016821F0040101602068016841F015
:103130000A010160A06C0168C90303D5016841F46C
:1031400080710160606D18B1016841F480710160A7
:103150002068016841F001010160C9E770B50446CB
:1031600000F0F4F80546601C02D0044840680444AE
:1031700000F0ECF8401BA042FAD370BD0000002024
:103180002DE9F84F0022DFF888914FF0010803275E
:103190004FF00F0C09F1040AA9F1040BB1E008FA91
:1031A00002F52B40002B72D00C7904F00304012CA3
:1031B00001D0022C15D18668540007FA04FE26EAD5
:1031C0000E06D1F80CE00EFA04FE4EEA060EC0F828
:1031D00008E04468AC430D79C5F3001595402543DC
:1031E00045600C79E443A40708D0C568540007FA89
:1031F00004F6B5438E68A6402E43C6600C7904F0F1
:103200000304022C11D1D40800EB8406356A54075C
:10321000E40E0CFA04FE25EA0E05D1F810E00EFAD1
:1032200004FE4EEA050EC6F820E00568540007FAD1
:1032300004F6B5430E7906F00306A6402E43066059
:103240004C6814F4403F5BD0324C256E45F00105CC
:103250002566246E04F0010400942F4C22F003052F
:103260002E19B56894074FEA147E0CFA0EF4A543A4
:10327000B0F1904F04D0294CA04203D1012417E0B3
:10328000002415E0264CA04202D1022410E037E0D1
:10329000244CA04201D103240AE0234CA04201D1D6
:1032A000042405E0214CA04201D1052400E00624BD
:1032B00004FA0EF42C43B460D9F800409C434D68E6
:1032C000ED0200D51C43C9F80040DAF800409C43E9
:1032D0004D68AD0200D51C43CAF80040DBF8004041
:1032E0009C434D68AD0300D51C43CBF80040084D0E
:1032F000083D2C689C434E68F60300D51C432C60A7
:10330000521C0B6833FA02F47FF449AFBDE8F88F22
:103310000804014000100240000001400004004881
:1033200000080048000C0048001000480014004845
:103330000069084201D00120704700207047002A30
:1033400001D0816170478162704700000148806848
:103350007047000000000020024881684268114464
:10336000816070470000002010B50024032000F0A9
:1033700077F80F2000F008F808B1012401E000F010
:1033800029F8204610BD000070B5054600240F4EF8
:103390007068002817D04FF47A71B1FBF0F00C4937
:1033A0000968B1FBF0F000F05DFF08B101240BE00B
:1033B000102D06D200222946501E00F031F835604B
:1033C00002E0012400E00124204670BD000000203E
:1033D0000C00002082B00A48016E41F00101016634
:1033E000016E01F001010191816D41F08051816513
:1033F000806D00F08050019002B000F0A9B800008C
:1034000000100240002809DB00F01F02012191405A
:103410004009800000F1E020C0F800117047000072
:10342000F0B40D460D4B1B68C3F30223C3F1070430
:10343000042C00D90424191D072901D2002300E01F
:10344000DB1E012606FA04F1491E294099409E40E0
:10345000761E16403143F0BC03F0DABD0CED00E0FF
:1034600000F00701054A10684FF6FF03184040EAD4
:103470000120034908431060704700000CED00E094
:103480000000FA052F49304B0A6832214A432F4980
:1034900000280AD0B0F5007F2DD0086820F4C06065
:1034A00040F480600860002070470868C0F3412045
:1034B000022805D051F8800F20F480700860F2E7F0
:1034C000D1F8800020F48070C1F88000086820F4F2
:1034D000C06040F400700860B2FBF3F0401C00E0F4
:1034E000401E4A69520501D50028F9D148694005B6
:1034F000D9D5032070470868C0F34120022805D0C1
:1035000051F8800F40F480700860CCE7D1F880005B
:1035100040F48070C1F88000086820F4C06040F476
:1035200000700860B2FBF3F0401C00E0401E4A69E6
:10353000520501D50028F9D148694005B3D50320CB
:10354000704700000C00002040420F000070004057
:103550000248816841F480418160704700700040FA
:103560002DE9F84F0446002600272068BE4D0003D1
:1035700066D54FF00008A86DC00009D4A86D40F0D2
:103580008050A865A86D00F0805000904FF00108B1
:10359000DFF8D8A2DAF8000040F48070CAF8000022
:1035A000FFF7D4FE814607E0FFF7D0FEA0EB09004D
:1035B000022801D9032603E0DAF80000C005F3D59C
:1035C00026B13746B8F1010F36D039E0D5F8900072
:1035D00000F4407080B1216D81420DD055F8900FFC
:1035E00020F44070296841F480312960296821F471
:1035F0008031296045F89009C00711D0FFF7A6FE79
:10360000814641F2883A07E0FFF7A0FEA0EB0900EF
:10361000504501D9032603E0D5F890008007F3D583
:103620000EB13746CEE7D5F89000216D20F44070FA
:103630000843C5F89000C5E7A86D20F08050A86544
:103640002078C00707D0D5F88800616820F0030013
:103650000843C5F888002078800707D5D5F888008A
:10366000A16820F00C000843C5F8880020784007C6
:1036700007D5D5F88800E16820F030000843C5F888
:1036800088002078000707D5D5F88800216920F048
:10369000C0000843C5F888002078C00607D5D5F8D3
:1036A0008800616920F440700843C5F888002078DC
:1036B000800607D5D5F88800A16920F4406008434A
:1036C000C5F888002078400607D5D5F88800E1695C
:1036D00020F440500843C5F888002078000607D53C
:1036E000D5F88800216A20F440400843C5F88800D6
:1036F0002088C00507D5D5F88800616A20F44030DD
:103700000843C5F888002068800307D5D5F89C00D9
:10371000A16A20F003000843C5F89C0020888005BA
:1037200007D5D5F88800E16A20F440200843C5F8A1
:103730008800208840050FD5D5F88800216B20F43B
:1037400040100843C5F88800206BB0F5801F03D1F6
:10375000E86840F48010E860208800050FD5D5F8AF
:103760008800616B20F440000843C5F88800606B56
:10377000B0F5800F03D1E86840F48010E86020883D
:10378000C0040FD5D5F88800A16B20F04070084325
:10379000C5F88800A06BB0F1807F03D1E86840F4E1
:1037A0008010E86020884FF0006180040ED5D5F8C5
:1037B0008800E26B20F040601043C5F88800E06BA1
:1037C000884203D1E86840F48010E8602088400413
:1037D0000ED5D5F88800226C20F040601043C5F863
:1037E0008800206C884203D1E86840F48010E860CB
:1037F000208800040FD5D5F88800616C20F0405077
:103800000843C5F88800606CB0F1805F03D1E868B8
:1038100040F48030E8602068C0030FD5D5F88800F8
:10382000A16C20F040400843C5F88800A06CB0F1BE
:10383000804F03D1E86840F48030E860206840039E
:103840000FD5D5F89C00E16C20F440100843C5F872
:103850009C00E06CB0F5001F03D1E86840F48010D4
:10386000E8603846BDE8F88F001002400070004064
:103870002DE9F04704460D460027002C17D0DFF84D
:10388000A091D9F8000000F00F00A84211D2D9F899
:10389000000020F00F002843C9F80000D9F800000C
:1038A00000F00F00A84204D00120BDE8F0870120FD
:1038B000FBE720785B4EC00741F2883A4ED0606843
:1038C000DFF86481032806D002281ED03068400546
:1038D00020D40120E9E73068800101D40120E4E729
:1038E00002F0CAF9404520D9B06810F0F00F04D0BA
:1038F0002078800719D5A068B8B9B06820F0F0002A
:1039000040F08000B06080270FE03068800301D471
:103910000120CAE700F0BAF8404506D9B06820F0A7
:10392000F00040F08000B0608027B068616820F04F
:1039300003000843B060FFF709FD804607E0FFF78A
:1039400005FDA0EB0800504501D90320ADE7B068A4
:10395000616800F00C00B0EB810FF0D120688107A6
:1039600015D5400703D5B06840F4E060B06020781A
:10397000000705D5B06820F4605040F4E060B06006
:10398000B068A16820F0F0000843B06005E0802F27
:1039900003D1B06820F0F000B060D9F8000000F06A
:1039A0000F00A84217D9D9F8000020F00F002843D3
:1039B000C9F80000FFF7CAFC074606E0FFF7C6FC9F
:1039C000C01B504501D903206FE7D9F8000000F073
:1039D0000F00A842F2D12078400705D5B068E16811
:1039E00020F4E0600843B0602078000706D5B06896
:1039F000216920F4605040EAC100B06000F046F850
:103A0000B1680A4AC1F30311515C01F01F01C840BB
:103A10000749086007480068BDE8F047FFF7B4BCF5
:103A2000002002400010024000B4C404A08300083B
:103A30000C000020000000200148006870470000D2
:103A40000C00002000B5FFF7F7FF05498968054A1B
:103A5000C1F30221515C01F01F01C84000BD00000C
:103A600000100240B083000800B5FFF7E5FF0549EC
:103A70008968054AC1F3C221515C01F01F01C840A9
:103A800000BD000000100240B083000810B51A4AC3
:103A90009068C0F38101194801290BD09168184C36
:103AA000C1F38101022906D09168C1F38101032984
:103AB00003D0002010BD204610BDD16801F00303E3
:103AC000D168C1F30311491C032B0DD0B0FBF1F0F9
:103AD000D168C1F306214843D168C1F34161491C53
:103AE0004900B0FBF1F010BDB4FBF1F0D168C1F3B7
:103AF00006214843F0E70000001002400024F400D3
:103B000000366E012DE9F8430446002C0CD02078D5
:103B1000FE4DC00752D0A86800F00C00E96801F023
:103B200003010C2803D004E00120BDE8F883032939
:103B300016D0082814D06068B0F5803F17D0B0F5D3
:103B4000A02F19D0286820F480302860286820F43D
:103B500080202860606818B3FFF7F8FB06461BE07A
:103B6000286880032AD5606840BB0120DDE728680B
:103B700040F480302860EDE7286840F48020286019
:103B8000286840F480302860E4E7FFF7DFFB801B03
:103B9000642801D90320C8E728688003F5D50DE023
:103BA000FFF7D4FB064606E0FFF7D0FB801B642836
:103BB00001D90320B9E728688003F5D4207880076D
:103BC0004ED5A86800F00C00E96801F003010C284C
:103BD00001D102290BD0042809D0E06870B328680D
:103BE00040F480702860FFF7B1FB06461BE02868B0
:103BF000400501D5E06868B16868217C20F0FE408E
:103C000040EA01606860C2480068FFF7BDFB38B356
:103C100001208AE7012088E7FFF798FB801B022834
:103C200001D9032081E728684005F5D56868217C23
:103C300020F0FE4040EA0160686011E0286820F44E
:103C400080702860FFF782FB064606E0FFF77EFBE8
:103C5000801B022801D9032067E728684005F5D4B6
:103C6000207800072CD56069A8B1D5F8940040F001
:103C70000100C5F89400FFF769FB064606E0FFF770
:103C800065FB801B022801D903204EE7D5F894007C
:103C90008007F4D514E0D5F8940020F00100C5F8B1
:103CA0009400FFF753FB064606E0FFF74FFB801B2F
:103CB000022801D9032038E7D5F894008007F4D40E
:103CC000207840076FD54FF00008A86DC00009D4D8
:103CD000A86D40F08050A865A86D00F0805000905D
:103CE0004FF001088B4E3068C00511D4306840F4A5
:103CF00080703060FFF72AFB074606E0FFF726FBDF
:103D0000C01B022801D903200FE73068C005F5D594
:103D1000A068012813D0052818D055F8900F20F07E
:103D200001002860286820F0040045F89009A06888
:103D300041F2883608B3FFF709FB074618E0D5F8CB
:103D4000900040F00100C5F89000F0E755F8900FA2
:103D500040F004002860286840F0010045F8900910
:103D6000E5E7FFF7F3FAC01BB04201D90320DCE618
:103D7000D5F890008007F4D50EE0FFF7E7FA074684
:103D800006E0FFF7E3FAC01BB04201D90320CCE6FE
:103D9000D5F890008007F4D4B8F1010F03D1A86DD5
:103DA00020F08050A865207880062CD5A069A8B1A5
:103DB000D5F8980040F00100C5F89800FFF7C6FA62
:103DC000064606E0FFF7C2FA801B022801D903204D
:103DD000ABE6D5F898008007F4D514E0D5F8980044
:103DE00020F00100C5F89800FFF7B0FA064606E09B
:103DF000FFF7ACFA801B022801D9032095E6D5F81D
:103E000098008007F4D4E069F0B3A9684FF0FF3759
:103E1000C1F38101032962D002280FD0286820F065
:103E200080702860E86820F00300E860E8683A499C
:103E30000840E860FFF78AFA04464CE0286820F062
:103E400080702860FFF782FA064606E0FFF77EFAE8
:103E5000801B022801D9032067E628688001F5D479
:103E600054F8201F6068228A401E41EA0010A168B1
:103E700007EB5202090241EA42510843217D07EB58
:103E8000510140EA416000E066E0217B40EAC16008
:103E9000E968224A11400843E860286840F08070D1
:103EA0002860E86840F08070E860FFF74FFA044649
:103EB00006E0FFF74BFA001B022801D9032034E685
:103EC00028688001F5D547E0FFF740FA001B02287B
:103ED00001D9032029E628688001F5D43CE00128B7
:103EE00038D0E868226A00F00301914230D1616A5B
:103EF00000F0F002491EB2EB011F29D1A26A00F4C2
:103F0000FE41B1EB022F23D10AE000000010024075
:103F10000000002000700040FFFFEEFE0C809F01BB
:103F200094F82C1000F07842B2EBC16F10D1228EC1
:103F300000F4C00107EB5202B1EB425F08D194F8E4
:103F4000341000F0C06007EB5101B0EB416F03D0BB
:103F50000120EAE50120E8E50020E6E570B5044629
:103F6000002C09D0606A002540B125616561A56219
:103F700094F85D0040B10CE0012070BD6068B0F5C0
:103F8000827FF4D0E561F2E784F85C50204600F0CF
:103F90005BF8022084F85D002068016821F0400190
:103FA0000160E1684FF4E062914201D9002001E034
:103FB0004FF48050B1F5706F02D0914200D0A562ED
:103FC000A188228901F4827102F404421143227C07
:103FD00002F002021143227D02F001021143228B02
:103FE00002F400721143227F02F03802114394F868
:103FF000202002F080021143228D02F4005211436E
:1040000022681160A169042202EA114194F8242077
:1040100000F4805002F01002114394F8342002F0B2
:1040200008021143A28902F470621143014320681F
:1040300041602068C16921F40061C16125660120E9
:1040400084F85D00002070BD10B586B004461421D0
:1040500001A8FCF727F91249206888421ED11148AF
:10406000016E41F480510166016E01F480510091AE
:10407000C16C41F00101C164C06C00F0010000900E
:10408000A0200190022002900020039004900520BF
:10409000059001A94FF09040FFF772F806B010BDEF
:1040A00000300140001002402DE9F84F04468B46D5
:1040B00092461D46002694F85C0001280DD04FF072
:1040C000010984F85C90FFF741F9074694F85D0018
:1040D000B046012804D00226BEE00220BDE8F88FD9
:1040E000BBF1000F1CD05FEA0A0019D0032084F84E
:1040F0005D00C4F86080C4F838B0A4F83CA0A4F80F
:104100003EA0C4F84080A4F84480A4F84680C4F8D7
:104110005080C4F84C80A068B0F5004F02D00BE08E
:10412000012699E02068016821F0400101602068C3
:10413000016841F48041016020680168490603D4A8
:10414000016841F040010160E068B0F5E06F2BD9F3
:10415000606810B1BAF1010F20D1A06B216800880E
:10416000C860A06B801CA063E08F401EE08715E054
:1041700020688168890709D5A16B0988C160A06B97
:10418000801CA063E08F401EE08707E0FFF7DEF8A9
:10419000C01BA84201D3681C04D11DB1E08F0028C8
:1041A000E6D145E0032657E0606810B1BAF1010F8F
:1041B0003BD1E08F01280AD9A06B21680088C86034
:1041C000A06B801CA063E08F801EE0872DE0A06BB9
:1041D000216800780873A06B401CA063E08F401E2C
:1041E000E08722E020688168890716D5E18F0129E0
:1041F00009D9A16B0988C160A06B801CA063E08F06
:10420000801EE08711E0A16B09780173A06B401C50
:10421000A063E08F401EE08707E0FFF797F8C01B20
:10422000A84201D3681C0ED16DB1E08F0028D9D10E
:104230003A462946204601F048FD08B12020206674
:10424000A06810B105E0032606E02068C168806818
:104250000090206E00B1012684F85D9084F85C80A7
:1042600030463BE710B5401EB0F1807F01D30120FE
:1042700010BD4FF0E02460610F21601702F0C8FE0E
:104280000020A06107202061002010BD704770470A
:1042900070470000F0B590F83C20012A58D0012268
:1042A00080F83C20CA6800268B6822F440721A43CA
:1042B0004B6822F480621A430B6822F400621A43AE
:1042C0000B6922F480521A434B6922F400521A43BC
:1042D0000B6B22F480421A430B8B22F4702242EAC9
:1042E00003431C4F02681C4C1C4DBA4203D0A2422F
:1042F00001D0AA4205D1D1F81CC023F0805343EA73
:104300000C03BA4203D0A24201D0AA421BD1B1F899
:1043100028C023F4700343EA0C53D1F820C023F0E3
:10432000807343EA0C03D1F824C023F0007343EAFE
:104330000C03BA4203D0A24201D0AA4203D1C96AF7
:1043400023F000530B43536480F83C600020F0BD21
:104350000220F0BD002C014000340140005001401B
:1043600070477047704700002DE9F04190F83C20FD
:10437000012A43D0012580F83C50022280F83D20DC
:1043800003685A689C681E4E1E4FDFF87CC0B3421B
:1043900003D0BB4201D0634504D122F470084A68BF
:1043A00042EA0802DFF8648002EA0802D1F80080DD
:1043B00048EA0208C3F804800268B24212D0B2F19F
:1043C000804F0FD0124B9A420CD0124B9A4209D018
:1043D000114B9A4206D0BA4204D0104B9A4201D0F7
:1043E000624504D124F080038968194391603C3010
:1043F0004570002101700020BDE8F0810220FBE73C
:10440000002C014000340140005001408FFFFFFDAF
:104410000004004000080040000C00400040014043
:10442000704710B50446002C03D094F83D0010B13D
:1044300007E0012010BD002084F83C00204600F079
:1044400017F8022084F83D00211D206801F0A4FD2A
:1044500001203D34E0726070A070E07020716071E6
:10446000A071E07120726072A0722070002010BDF7
:1044700008B500681B4A1C49904208D1086E40F4F8
:1044800080300866086E00F48030009008BD174A3E
:10449000904211D1086E40F400300866086E00F4B6
:1044A00000300090002211461920FEF7B9FFBDE848
:1044B00008401920FEF7A6BF0D4A9042E6D1086ECB
:1044C00040F480200866086E00F4802000900022EE
:1044D00011461A20FEF7A4FFBDE808401A20FEF797
:1044E00091BF000000400140001002400044014024
:1044F0000048014090F83D10012901D0012070478B
:10450000022180F83D100168CA6842F00102CA60C9
:1045100000681549884214D0B0F1804F11D013497A
:1045200088420ED0124988420BD01249884208D0E6
:104530001149884205D01149884202D01049884269
:104540000CD181680F4A114006290BD0B1F5803F8C
:1045500008D0016841F00101016003E0016841F009
:104560000101016000207047002C01400004004060
:1045700000080040000C00400034014000400140B1
:1045800000500140070001000168CA6822F00102E2
:10459000CA6001680A6A41F211131A4207D10A6A15
:1045A0009B001A4203D10A6822F001020A6001212D
:1045B00080F83D100020704770B50446084600257D
:1045C00094F83C1001291CD0012684F83C6002219B
:1045D00084F83D1021688A68344B1A4022F47F42E7
:1045E0008A600168B1F5005F2FD016DC40294CD0FD
:1045F00009DCD1B1102918D0202916D030294ED18C
:1046000013E0022070BD50292BD0602933D07029CF
:104610000FD0B1F5805F42D142E011F00F0F3ED1D3
:104620000811A0F58030072839D8206801F036FD40
:1046300036E0D0E902134268206801F024FD2068CA
:10464000816841F0770181602AE0D0E90213426875
:10465000206801F018FD2068816841F48041816084
:104660001EE0C2684168206801F0EAFE502120681F
:1046700001F014FD14E0C2684168206801F0F1FE09
:104680006021206801F00AFD0AE0C26841682068E4
:1046900001F0D6FE4021206801F000FD00E0012578
:1046A0003C34667000202070284670BD88FFCEFF25
:1046B000704770B50446206801694FF00005C94392
:1046C000890716D4C168C943890712D4E91E01615C
:1046D0000120207720688069800703D02046FFF7FB
:1046E000E7FF05E0204600F039F9204600F02AFAFD
:1046F000257720680169C943490718D4C168C943AF
:10470000490714D46FF0040101610220207720686A
:10471000806910F4407F03D02046FFF7C9FF05E011
:10472000204600F01BF9204600F00CFA257720689F
:104730000169C943090717D4C168C943090713D4DC
:104740006FF008010161042020772068C0698007AC
:1047500003D02046FFF7ACFF05E0204600F0FEF84E
:10476000204600F0EFF9257720680169C943C906A2
:1047700018D4C168C943C90614D46FF0100101618F
:10478000082020772068C06910F4407F03D02046BD
:10479000FFF78EFF05E0204600F0E0F8204600F02D
:1047A000D1F9257720680169C943C90708D1C168D3
:1047B000C943C90704D1891E0161204600F05AFA95
:1047C00020680169C943090609D4C168C9430906BB
:1047D00005D46FF0800101612046FFF758FD206885
:1047E0000169C943C90509D4C168C943090605D48B
:1047F0006FF4807101612046FFF748FD2068016970
:10480000C943490609D4C168C943490605D46FF0B4
:1048100040010161204600F07BFA20680169C9432C
:10482000890609D4C168C943890605D46FF02001FF
:1048300001612046FFF72CFD20680169C943C902C8
:1048400009D4C168C943C90205D46FF4801101615C
:104850002046FFF786FD20680169C943890209D413
:10486000C168C943890205D46FF400110161204673
:10487000FFF776FD20680169C943490209D4C16880
:10488000C943490205D46FF4800101612046FFF756
:1048900069FD20680169C94309020BD4C168C94395
:1048A000090207D46FF4000101612046BDE87040A1
:1048B000FFF7B6BD70BD000070B586B00446142188
:1048C00001A8FBF7EFFC224B2268002421490225B6
:1048D0004FF090409A4213D1CA6C42F00102CA6470
:1048E000C96C01F0010100919915019102950394A1
:1048F00004940621059101A9FEF742FC06B070BDA3
:10490000B2F1804FFAD1CA6C42F00102CA64CA6C9B
:1049100002F001020092CA6C42F00202CA64C96C41
:1049200001F0020100910321019102950394049486
:104930000126059601A9FEF723FCB002019002951D
:1049400003940494059601A90348FEF719FCD5E7E2
:10495000002C01400010024000040048704770B570
:1049600004460D46002694F83C0001280BD0012097
:1049700084F83C000C2A4FD007DC82B1042A22D0F4
:10498000082A06D134E0022070BD102A59D0142A1A
:104990006BD00126002084F83C00304670BD2946CB
:1049A000206801F085FB2068816941F00801816180
:1049B0002068816921F004018161206881692A6988
:1049C00011438161E6E72946206801F0C9FB2068B0
:1049D000816941F4006181612068816921F480610D
:1049E0008161206881692A6941EA02218161D1E7F8
:1049F0002946206801F006FC2068C16941F00801E1
:104A0000C1612068C16921F00401C1612068C169E8
:104A10002A691143C161BDE72946206801F044FCC1
:104A20002068C16941F40061C1612068C16921F455
:104A30008061C1612068C1692A6941EA0221C161BE
:104A4000A8E72946206801F081FC2068016D41F04B
:104A5000080101652068016D21F0040101652068ED
:104A6000016D2A691143016594E72946206801F028
:104A7000A9FC2068016D41F4006101652068016DA9
:104A800021F4806101652068016D2A6941EA0221F3
:104A900001657FE710B50446002C03D094F83D0073
:104AA00010B107E0012010BD002084F83C00204632
:104AB00000F018F8022084F83D00211D206801F064
:104AC0006BFA01203D34E0726070A070E0702071DC
:104AD0006071A071E07120726072A072207000207D
:104AE00010BD000008B50068144A1549904219D15C
:104AF000086E40F400600866086E00F400600090E4
:104B0000002211461920FEF78BFC1920FEF77AFCD3
:104B1000002211461A20FEF783FCBDE808401A2047
:104B2000FEF770BCB0F1804F07D1886D40F00100F6
:104B30008865886D00F00100009008BD002C0140E0
:104B4000001002407047000070B5044600290DD0E7
:104B500004290ED008290FD00C2910D0102911D00B
:104B600094F84300012810D0012070BD94F83E0055
:104B7000F8E794F83F00F5E794F84000F2E794F87E
:104B80004100EFE794F84200ECE70220F1B304297A
:104B900049D008294AD00C294BD010294CD084F890
:104BA00043000122206801F061FA28492068284A60
:104BB000284B294D88420BD0904209D0984207D00B
:104BC000264EB04204D0264EB04201D0A84203D1B6
:104BD000466C46F4004646642068884211D0B0F125
:104BE000804F0ED01F4988420BD01F49884208D001
:104BF0001E49884205D0904203D0984201D0A84275
:104C00001DD181681A4A1140062900E008E01AD037
:104C1000B1F5803F17D0016841F00101016012E059
:104C200084F83E00BDE784F83F00BAE784F840000E
:104C3000B7E784F84100B4E784F84200B1E70168BF
:104C400041F001010160002070BD0000002C014016
:104C50000034014000400140005001400044014048
:104C6000004801400004004000080040000C0040E3
:104C70000700010030B400682049884238D1204C38
:104C8000204B40F2DE326078002148B11868456B55
:104C90000A3545631868456B954201D341636170DD
:104CA000A07848B11868856B0A3585631868856BEC
:104CB000954201D38163A170E07848B11868C56B53
:104CC0000A35C5631868C36B934201D3C163E170B1
:104CD000207900280AD00C4B1D686A63401CC0B2C2
:104CE0002071642802D318684163217130BC704779
:104CF00006498842FAD130BC00F060BB0044014054
:104D000010000020E401002098010020004801402C
:104D1000704790F88010012917D001216430017785
:104D20002421016250F8641C0A680B6823F0010317
:104D30000B6022F000510022026050F8643C1960C0
:104D400020210162027700207047022070477047DF
:104D5000704770B5044694F8800001281DD00120EA
:104D600084F880002420C4F8840020680568026864
:104D700022F0010202602068826822F060620A4329
:104D80008260204601F080FB206805602020C4F886
:104D90008400002084F8800070BD022070BD70B5D2
:104DA000044694F8800001281DD0012084F880007A
:104DB0002420C4F8840020680568026822F00102FB
:104DC00002602068826822F060420A4382602046C6
:104DD00001F05AFB206805602020C4F88400002000
:104DE00084F8800070BD022070BD70477047704726
:104DF00070B50446206850E8001F21F4907140E827
:104E00000012002AF6D1294A2068083050E8001F15
:104E1000114040E80013002BF6D1E06E012808D1C4
:104E2000206850E8001F21F0100140E80012002A1D
:104E3000F6D1206881684FF0000349064FF00F0556
:104E40004FF0200626D52068083050E8001F21F0DA
:104E5000400140E80012002AF5D1E06F48B1144942
:104E60008163E06FFEF730F8F0B1E06F816B884747
:104E70001AE0A4F85E30A3652068056220688169A5
:104E800041F008018161C4F88860E3662046FFF7BD
:104E9000AEFF09E0A4F85E30A3650562C4F888603F
:104EA000E3662046FFF7A3FF002070BDFEFFFFEF83
:104EB0000D660008704700002DE9F04104462368A4
:104EC000D86919689A6840F60F0500EA0506002EB1
:104ED0000ED185060CD501F0200502F080573D4328
:104EE00006D0216F00297DD02046BDE8F04108475B
:104EF0000025002E77D0A84EA84F16400F4037430C
:104F000071D0C70709D0CF0507D501271F62D4F894
:104F10008C3043F00103C4F88C3083070AD5D307E3
:104F200008D0276802233B62D4F88C3043F0040396
:104F3000C4F88C3043070AD5D30708D02768042368
:104F40003B62D4F88C3043F00203C4F88C30030782
:104F50000CD501F02003334308D0266808233362C0
:104F6000D4F88C3043F00803C4F88C3003050BD51B
:104F70004B0109D526684FF400633362D4F88C30B6
:104F800043F02003C4F88C30D4F88C30002B39D097
:104F9000800609D501F0200002F08051084303D0BB
:104FA000216F09B120468847D4F88C0021688968B0
:104FB000490602D410F0280F2AD0204601F03AFB0F
:104FC0002068806840061FD52068083050E8001F20
:104FD00021F0400140E80012002AF5D1E06F70B1E5
:104FE0006F4901E00EE019E08163E06FFDF76CFFAF
:104FF000002807D0E06F816BBDE8F04108472046EC
:10500000FFF758FFBDE8F0812046FFF753FFF9E7AF
:105010002046FFF74FFFC4F88C50F3E7E66E012EF1
:105020007ED1C6067CD5CE067FD5102018622068BA
:1050300080684FF02003400645D5E16F086840685E
:1050400080B20028DED0B4F85C208242DAD9A4F81D
:105050005E000868006880062BD4206850E8001FB6
:1050600021F4807140E80012002AF6D1206808304F
:1050700050E8001F21F0010140E80012002AF5D19C
:105080002068083050E8001F21F0400140E800127D
:10509000002AF5D1C4F88830E566206850E8001F82
:1050A00021F0100140E80012002AF6D1E06FFDF770
:1050B000D7FEB4F85C00B4F85E10401A81B2204606
:1050C000FFF745FE9EE734F85C0F6188401A81B215
:1050D00060885C3C002895D0002993D0206850E877
:1050E000002F22F4907240E80026002EF6D12A4EBE
:1050F000F6432068083050E8002F324040E800278F
:10510000002FF6D1C4F88830E5662567206850E89E
:10511000002F22F0100240E80023002BF6D100E01F
:1051200003E02046FFF713FE6CE7C50209D55502E0
:1051300007D54FF4801018622046BDE8F041FFF714
:1051400055BE03060CD501F0800302F400021343A0
:1051500006D0616F0029B5D02046BDE8F041084770
:10516000420606D54A0604D52046BDE8F04101F0C6
:105170008BBA020206D54A0004D52046BDE8F041AC
:10518000FFF733BEC0019DD500299BDA2046BDE85C
:10519000F041FFF7DDBD0000010000102001000418
:1051A000F965000810B50446002C03D0D4F884003B
:1051B00010B107E0012010BD002084F880002046D7
:1051C00000F028F82420C4F884002068016821F049
:1051D00001010160204601F07DFC012818D0A06A81
:1051E00010B1204601F074F92068416821F4904123
:1051F00041602068816821F02A018160206801688F
:1052000041F0010101602046BDE8104001F0C4B941
:10521000012010BD10B59CB00446142117A8FBF75F
:1052200041F8542102A8FBF73DF81A49206888424A
:105230002ED1012002900024039402A8FEF790F9D9
:1052400008B1FCF775FC1448016E41F48041016619
:10525000016E01F480410191C16C41F00401C1640F
:10526000C06C00F0040001903020179002201890CC
:1052700019941A9407201B9017A90848FDF780FF7E
:10528000002211462520FEF7CBF82520FEF7BAF8BC
:105290001CB010BD0038014000100240000800485A
:1052A00030B4D0F88830202B02D0022030BC7047B8
:1052B000E1B1DAB190F88030012B19D0012380F8E8
:1052C00080300023C3660B4C0368A3420BD05B689D
:1052D0001B0208D5036853E8004F44F0806443E89C
:1052E0000045002DF6D130BC01F07CBD0120DDE78A
:1052F0000220DBE70080004070B50068104988425A
:105300001DD1104C21780A290BD0E088421CE28084
:105310000D4A1154BDE8704001220A490B48FFF7BD
:10532000BFBF094802F0BEFBA06001F081FE00256E
:10533000257080210448FAF7B5FFE580EAE770BDE3
:105340000038014010000020A403002014030020B6
:105350007047FEE710B50848FFF7CCF80748FFF79D
:10536000C9F80748FFF7C6F8BDE810400122054913
:105370000548FFF795BF0000300200207C020020A6
:10538000C8020020100000201403002010B50748B8
:10539000FFF7FAF80648FFF7F7F80648FFF7F4F8C2
:1053A000BDE810400448FFF723BD00003002002094
:1053B0007C020020C80200201403002070B52D4D8F
:1053C00002212846FDF7B4FF2B4C208001212846FE
:1053D000FDF7AEFF6080294D08212846FDF7A8FFA4
:1053E000A08010212846FDF7A3FFE08000200126C1
:1053F00004F108050023A4F1080232F8101021B1CD
:1054000001290AD0022930D119E034F8101049BB23
:1054100022F8106025F8103027E035F81010491CEC
:1054200089B225F810100A291FD934F8101011B1CB
:1054300022F8103019E0022122F8101015E035F89A
:105440001010491C89B225F81010B1F5C87F0AD296
:1054500034F81010012908D122F810300649103113
:1054600021F8106001E022F81030401CC0B204287E
:10547000C3D370BD00080048240000200004004889
:105480004FF0904340229A610146014800F01EBD52
:10549000003001404FF0904340229A62014601489B
:1054A00000F014BD0030014000EB8100006E00F000
:1054B000F84070478068C0F3C00070478068C0F350
:1054C000000070478068C0F3800070478068C0F3B8
:1054D00080007047C06810F4406F01D00020704712
:1054E0000120704710B501F0007300EBD350436901
:1054F000C1F3045107248C40A3438A401343436102
:1055000010BD00EB8100016E21F0004111430166E6
:10551000704700002DE9F04105460021EF2340F2DD
:105520003F12084600F03BF94FF09041402088615F
:105530000024094E4FF496374FEA1528414630466D
:1055400000F0C4FCE9B2304600F0C0FC641CBC4270
:10555000F4D3BDE8F08100000030014010B500F048
:10556000B3FB00F00AF9CF20FFF794FF0020FFF70C
:1055700087FFC320FFF784FF3020FFF781FFED2076
:10558000FFF788FF6420FFF77BFF0320FFF778FF1A
:105590001220FFF775FF8120FFF772FFE820FFF769
:1055A00079FF8520FFF76CFF0020FFF769FF782067
:1055B000FFF766FFCB20FFF76DFF3920FFF760FF95
:1055C0002C20FFF75DFF0020FFF75AFF3420FFF784
:1055D00057FF0220FFF754FFF720FFF75BFF202063
:1055E000FFF74EFFEA20FFF755FF0020FFF748FFC7
:1055F0000020FFF745FFC020FFF74CFF1B20FFF7FF
:105600003FFFC120FFF746FF1220FFF739FFC520FB
:10561000FFF740FF3220FFF733FF3C20FFF730FF5A
:10562000C720FFF737FFAF20FFF72AFF3620FFF72D
:1056300031FF0820FFF724FF2120FFF72BFF3A203E
:10564000FFF728FF5520FFF71BFFB120FFF722FFD0
:105650000020FFF715FF1B20FFF712FFB420FFF714
:1056600019FF0420FFF70CFFB620FFF713FF0A20F5
:10567000FFF706FFA220FFF703FFF620FFF70AFF60
:105680000120FFF7FDFE3020FFF7FAFEF220FFF7C2
:1056900001FF0020FFF7F4FE2620FFF7FBFE0120AC
:1056A000FFF7EEFEE020FFF7F5FE0F20FFF7E8FE24
:1056B0001D20FFF7E5FE1A20FFF7E2FE0A20FFF7A4
:1056C000DFFE0D20FFF7DCFE0720FFF7D9FE4920A3
:1056D000FFF7D6FE6620FFF7D3FE3B20FFF7D0FE94
:1056E0000720FFF7CDFE1120FFF7CAFE0120FFF7CC
:1056F000C7FE0920FFF7C4FE0520FFF7C1FE042006
:10570000FFF7BEFEE120FFF7C5FE0020FFF7B8FE61
:105710001820FFF7B5FE1D20FFF7B2FE0220FFF7AD
:10572000AFFE0F20FFF7ACFE0420FFF7A9FE3620E6
:10573000FFF7A6FE1320FFF7A3FE4C20FFF7A0FE05
:105740000720FFF79DFE1320FFF79AFE0F20FFF7BB
:1057500097FE2E20FFF794FE2F20FFF791FE0520E5
:10576000FFF78EFE1120FFF795FE7820FDF7F6FC7F
:10577000BDE810402920FFF78DBE70B54FF0904472
:105780001025A5610A20FDF7E9FCA5626420FDF75C
:10579000E5FCA561BDE870406420FDF7DFBC2DE9A4
:1057A000F04107460C4615461E462A20FFF772FEBA
:1057B000384600F025F8284600F022F82B20FFF7A5
:1057C00069FE204600F01CF8304600F019F8BDE8EC
:1057D000F0412C20FFF75EBE70B505460C462A202E
:1057E000FFF758FE284600F00BF82B20FFF752FE7B
:1057F000204600F005F8BDE870402C20FFF74ABEB7
:1058000010B50446200AFFF73BFEE0B2BDE81040A9
:10581000FFF736BE30B58BB00024089409940A9483
:1058200020216846FAF73EFD1E484FF0A041016076
:105830004FF4403141608460C460046144610425D8
:105840008561047744770121016280F824404FF498
:10585000B862C2628A02026380F838100903C16329
:1058600080F84040FDF7E6F808B1FCF761F90894CC
:1058700008A90C48FCF7E4FD08B1FCF759F90A48FF
:1058800000900620019002947F20039004950594D7
:1058900069460448FCF78AFE002801D0FCF748F965
:1058A0000BB030BD680000200080F03E08B50D4808
:1058B000816C41F004018164816C01F0040100916C
:1058C000816C41F001018164806C00F00100009066
:1058D000002211460B20FDF7A3FDBDE808400B2078
:1058E000FDF790BD0010024030B587B0142102A82A
:1058F000FAF7D8FC2248C16C41F00401C164C16CC4
:1059000001F004010191C16C41F02001C164C16C3E
:1059100001F020010191C16C41F00101C164C16C31
:1059200001F001010191C16C41F00201C164C06C40
:1059300000F0020001904FF09045002250212846CF
:10594000FDF7FDFC0320029000240394049402A9B7
:105950000C48FDF715FC502102910121039104949C
:10596000059402A92846FDF70BFC18200290039429
:10597000049402A90448FDF703FC07B030BD000001
:1059800000100240000800480004004810B5144808
:10599000124901604FF4827141604FF4004181600F
:1059A0004FF4E061C16002210161002141614FF4C7
:1059B000007282611022C26101624162816207222B
:1059C000C262016308214163FEF7C8FA002803D0D0
:1059D000BDE81040FCF7ACB810BD0000003001403D
:1059E0003401002010B588B0002404940594069476
:1059F00007940194029403941448134901602721E9
:105A000041608460C1600461446180218161FEF76E
:105A100008FD08B1FCF78CF84FF48050049004A9FD
:105A20000A48FEF7C9FD08B1FCF782F82020019072
:105A3000039401A90548FEF797FC002801D0FCF764
:105A400077F808B010BD000000400140300200208F
:105A500010B50C480A4901609F2141600021816016
:105A600040F2E732C2600161416180218161FEF74D
:105A7000D8FC002803D0BDE81040FCF759B810BD91
:105A8000004401407C02002010B50C480A49016026
:105A90009F2141600021816040F2E732C2600161D4
:105AA000416180218161FEF7BCFC002803D0BDE884
:105AB0001040FCF73DB810BD00480140C80200206E
:105AC00010B598B000241594169417941C210EA8B4
:105AD000FAF7E8FB342101A8FAF7E4FB244823494C
