:020000040800F2
:1000000020580020ED010008B3580008E74F000811
:10001000B1580008811A0008BD6A000800000000FD
:10002000000000000000000000000000AD5A0008C1
:10003000371B000800000000B5580008AF5A000840
:10004000070200080702000807020008070200086C
:10005000070200080702000807020008070200085C
:10006000070200080702000807020008851A0008B6
:10007000070200080702000807020008070200083C
:10008000070200080702000807020008070200082C
:10009000070200080702000807020008070200081C
:1000A00007020008070200082D5B0008070200088D
:1000B00007020008070200080702000807020008FC
:1000C00007020008070200080702000807020008EC
:1000D00007020008B16A00080702000807020008CA
:1000E00007020008070200080702000807020008CC
:1000F00007020008070200080702000807020008BC
:1001000007020008070200080702000807020008AB
:10011000070200080702000807020008070200089B
:10012000070200080702000807020008070200088B
:10013000070200080702000807020008070200087B
:10014000070200080702000807020008070200086B
:10015000070200080702000807020008070200085B
:10016000070200080702000807020008070200084B
:10017000070200080702000807020008070200083B
:10018000070200080702000807020008070200082B
:10019000070200080000000007020008070200082C
:1001A000070200080702000807020008070200080B
:1001B0000702000807020008911A00080702000859
:1001C00007020008070200080702000807020008EB
:1001D0000702000807020008DFF80CD000F06AFEF2
:1001E00000480047D5760008205800200648804780
:1001F00006480047FEE7FEE7FEE7FEE7FEE7FEE70C
:10020000FEE7FEE7FEE7FEE71D5B0008D9010008F8
:100210002DE9F05F0546002092469B46884606463B
:10022000814640241BE0284641464746224600F0CE
:10023000F8FC53465A46C01A914110D3114618464D
:10024000224600F0DFFC2D1A67EB01084F462246DC
:100250000120002100F0D6FC17EB00094E41201EC2
:10026000A4F10104DFDC484631462A464346BDE896
:10027000F09F40EA01039B0703D009E008C9121F61
:1002800008C0042AFAD203E011F8013B00F8013B50
:10029000521EF9D27047D2B201E000F8012B491E7C
:1002A000FBD270470022F6E710B513460A46044613
:1002B0001946FFF7F0FF204610BD421C10F8011B45
:1002C0000029FBD1801A704730B50546002003464F
:1002D00000E05B1C934205D2EC5CC85C201A01D1A3
:1002E000002CF6D130BD00002DE9FF4F087883B017
:1002F0009946FF2805D0491C2D2804D00024002051
:1003000008E000200BE00124F9E700EB800003EB9C
:100310004000491C0B78FF2BF7D104B14042002369
:100320000293147819461D462D2C01D02B2C04D194
:10033000521C2D2C13D000240294AA461478FF2CB2
:100340000FD00A25A3FB057801FB05814FF0000CB7
:1003500003FB0C11521CE3194AEB0101EEE70124E7
:10036000EAE7814453EA010002D019F5C87F06DAB2
:1003700003980021C0E9001107B0BDE8F08F002507
:10038000AE4E2F46DFF8B882184600F06FFDCDE97B
:100390000001B9F1000002DAC9F1000400E00446EE
:1003A0000023A74A1AEB030B42EB045A12E0E007C2
:1003B00007D02A4633463846414600F076FA0746CB
:1003C00088462A4633461046194600F06EFA05461E
:1003D0000E466410002CEAD1DDE90001B9F1000FEE
:1003E0005A46534606DA00F0D2FA3A46434600F03F
:1003F000CEFA05E000F059FA3A46434600F055FAC5
:10040000029A0AB181F00041039AC2E90001B3E700
:100410002DE9FF4F1F468DB0D7E901464FF0FF3859
:100420002E2045464FF000090B90B9696D1C0E98BF
:100430008847396A824688470028F6D1BAF1FF3FDB
:100440000AD024F4D064002E11DDBAF12B0F08D0AD
:10045000BAF12D0F0BD102E0404611B08DE744F404
:100460008064B9696D1C0E9888478246761E69467D
:10047000600501D52D2000E02B208DF8000001F152
:10048000010B0DF1200809E0B9696D1C0E98884731
:1004900082460F9844F40074761E0560002E02DD3B
:1004A000BAF1300FF0D00B998A453ED144F0800468
:1004B00006E00F99681CA9F1010944F40074086072
:1004C000B9696D1C761E0E98884782463028F0D098
:1004D0002BE00B998A4505D1200603D444F0800413
:1004E000761E18E0504606F057FC08B30DF11301D4
:1004F000761E44F400748B4508D2AAF130000BF844
:10050000010B200607D5A9F1010003E0200602D463
:1005100009F101008146A00502D50F99681C086009
:10052000B9696D1C0E9888478246002ED1DC53E0D5
:10053000002E51DDBAF1650F02D0BAF1450F4BD153
:10054000A00549D5B9696D1C24F44074761E0E9837
:1005500088478246002E0CDD2B2804D0BAF12D0FDF
:1005600007D144F48074B9696D1C0E98884782469F
:10057000761EE00501D52D2100E02B2108F8011B96
:10058000CDF82C8021E00DF12901761E44F4007491
:1005900088450CD2AAF1300010F0FF0088F8000066
:1005A00002D10B99884509D908F1010806E0E00558
:1005B00001D5244801E042F20F708146B9696D1CF3
:1005C0000E98884782460F980560002E04DD50463D
:1005D00006F0E2FB0028D6D1F9690E988847FF2083
:1005E0008BF8000088F800000020069007904B462A
:1005F0006A4608A906A8FFF777FEA00502D46FF0A7
:1006000001002AE714F0240F0AD0E00714D1DDE935
:1006100006123868031D3B600068C0E900120BE059
:10062000DDE9060100F0BCFA0146E00704D13868B4
:10063000021D3A600068016028460EE70000144081
:100640000000F03FF1D8FFFFF0B480EA0102D40FC0
:100650004200B2EB410F02D20246084611464A0060
:1006600042D0C30DDDB2C1F3C752AD1A202D35DA29
:10067000C1F3160141F4000204B15242C5F1200653
:1006800002FA06F12A411044B3EBD05F23D0C4B183
:10069000012DA0EBC35009DCF0BC4FF0004202EA90
:1006A000C352DBB200F5000000F055BB400000F182
:1006B000807000EBC350A0F1807040EAD170490017
:1006C00009E0490841EAC071A0EBC35000F5000001
:1006D000400800EBC350F0BC00F034BB6142012283
:1006E00002EB4101001BF6E7F0BC704781F00041CE
:1006F000AAE780F00040A7E780EA010210B502F007
:100700000043400022D04A001FD0010E01EB1261CD
:10071000C0F35600C2F3560240F4000042F4000257
:10072000A0FB022000047F39140400D0401C50EAD2
:10073000124001D44000491EC2B20C0604EBD01096
:10074000401C4008802A02D003E0002010BD20F0A9
:100750000100002900DA0020184310BD2DE9FE4FEA
:10076000804681EA0300C00F0C46009021F0004152
:1007700023F00045B8EB0200A94105D240462146CE
:1007800090461C460B46024623F00040104347D0DB
:10079000270DC7F30A00C3F30A510290401A0190D3
:1007A00040286BDAC3F3130040F4801B0098924694
:1007B00020B10023D2EB030A63EB0B0B01985946DF
:1007C000C0F14002504600F01DFA06460D46504664
:1007D0005946019A00F035FA10EB080061410024F7
:1007E00087EA115284EAE7731A4340D0009A62B351
:1007F000019A012A4FEA075215DC001B61EB020146
:100800004FF0004202EA0752CDE90042001C41F5D8
:10081000801132462B4600F0DBFA03B0BDE8F08FC2
:1008200040462146F9E7001B61EB0201001C41F53F
:10083000801300185B412018A2F5001747EB030155
:1008400040EAD570B6196D4111E06D084FEA3606E1
:1008500045EAC0754FEA0752001B61EB0201001C1C
:1008600041F5801149084FEA3000001951413246E4
:100870002B4603B0BDE8F04F00F09BBA0098012270
:1008800040000023D0EB020263EBE07300982146A6
:100890004FEAE074B8EB000061EB0401E9E783F094
:1008A00000435BE781F0004158E72DE9FE4F81EA04
:1008B000030404F0004421F0004100944FF0000BC9
:1008C00023F0004350EA01045ED052EA03045BD0F7
:1008D000C3F30A54C1F30A552C44A4F2F33401942F
:1008E000A0FB0254C1F3130141F48011C3F31303BD
:1008F00043F4801301FB024400FB034E840A970A71
:1009000044EA815447EA8357A4FB076802958D0A9D
:1009100005FB07854FEA932C04FB0C542705029D29
:100920004FEA065847EA1637B5EB08056EEB070C99
:10093000870E920E47EA811742EA8312A7FB020153
:10094000B6EB0B0164EB00042B0D43EA0C335E188D
:1009500044EB1C50DA465146E7FB0201C5F3130491
:100960004FEA0B3343EA14534FEA0432019C43EA43
:100970000603A4F10C040294009CCDE900B400F03D
:1009800027FA03B0BDE8F08F00200146F9E72DE912
:10099000F04D81EA030404F0004B21F000451446B9
:1009A0004FF0000A23F0004150EA050220D054EA3B
:1009B00001021DD0C5F30A570246C5F31303C1F364
:1009C0001300C1F30A5640F4801543F48013A7EBDB
:1009D0000608101BD64608F2FD3873EB050002D35B
:1009E00008F1010801E092185B41B8F1000F03DA49
:1009F00000200146BDE8F08D00204FF4801106462E
:100A000084460EE0171B73EB050705D3121B63EB3F
:100A1000050306434CEA010C49084FEA30009218DE
:100A20005B4150EA0107EDD152EA030012D082EA9D
:100A3000040083EA0501084305D0101BAB4106D230
:100A40000122002306E000224FF0004302E06FF095
:100A5000010253101AEB06004CEB085110EB0A0090
:100A600041EB0B01BDE8F04D00F0A3B90EB5C10F8D
:100A700080EAE0700844CA07002140F233438DE861
:100A80000E000A460B4600F0A3F903B000BD0EB5F8
:100A900040F2334102910021CDE900110A460B4694
:100AA00000F096F903B000BD70B5C1F30A5201F031
:100AB00000450024C1F3130140F2FF3341F48011DB
:100AC0009A4201DA002070BD40F233439A42A2F20A
:100AD000334203DC524200F0A4F800E090402C4383
:100AE000F1D0404270BDC1F30A5210B5C1F31301F9
:100AF00040F2FF3341F480119A4201DA002010BD28
:100B000040F233439A42A2F2334203DC524200F0F5
:100B100088F810BD904010BD00F0004230F0004059
:100B20000AD0C10D01F56071C0F3160042EA01510F
:100B3000C20840071143704700200146704700007B
:100B400030B5041E71F1000404DB4FF00044404254
:100B500064EB0101141E73F1000405DB1C464FF029
:100B60000043524263EB04038B4208BF824230BD14
:100B700030B5041E71F1000404DB4FF00044404224
:100B800064EB0101141E73F1000405DB1C464FF0F9
:100B90000043524263EB0403994208BF904230BDC8
:100BA00001F0004330B421F0004150EA010206D0C8
:100BB0000A0DA2F56072C1F31301002A02DC30BCF9
:100BC00000207047440F44EAC104C100E01830BC63
:100BD00000EBC25000F0B6B830B50B46014600201D
:100BE0002022012409E021FA02F59D4205D303FAEF
:100BF00002F5491B04FA02F52844151EA2F1010270
:100C0000F1DC30BD202A04DB203A00FA02F100209A
:100C100070479140C2F1200320FA03F3194390403A
:100C20007047202A04DB203A21FA02F000217047A5
:100C300021FA02F3D040C2F1200291400843194644
:100C40007047202A06DBCB17203A41FA02F043EA2C
:100C5000E07306E041FA02F3D040C2F12002914075
:100C6000084319467047426842B1016811F8013BD8
:100C700023B1521EC0E90012184670470121C1601D
:100C8000881E704742685AB1C368016843B98368D7
:100C90008B4205D0491E521CC0E90012002070474B
:100CA0004FF0FF30704700000FB4002300B589B04B
:100CB0000CA900910B996FF00042CB601E4B06937C
:100CC0001E4B07930423CDE901321D4A08920246C8
:100CD0006B460020FFF79CFB09B05DF814FB70B574
:100CE00086B006464FF0FF300091CDE901010020AB
:100CF00015460C4604903246694604A8FFF7D4FF17
:100D000002460498211825B108B1084600E02046A3
:100D10002860049800280DD0002A02DD009888423F
:100D200008D0081B0094CDE901043246694604A8A6
:100D3000FFF7BAFF06B070BD670C0008850C00080D
:100D4000D90E00080029A8BF7047401C490008BF01
:100D500020F00100704710B4B0FA80FC00FA0CF0EB
:100D600050EA010404BF10BC704749B1CCF1200423
:100D700021FA04F411FA0CF118BF012121430843B0
:100D8000A3EB0C01CB1D4FEA00614FEA102042BFDC
:100D9000002010BC704700EBC35010440029A4BFD2
:100DA00010BC7047401C490008BF20F0010010BC77
:100DB000704710B5141E73F1000408DA401C41F1AD
:100DC000000192185B411A4301D120F0010010BDCF
:100DD0002DE9F04D92469B4611B1B1FA81F202E045
:100DE000B0FA80F220329046FFF70CFF04460F461F
:100DF00040EA0A0041EA0B0153465A46084313D021
:100E0000114653EA010019D0C8F140025046FFF7DD
:100E100008FF05460E46504659464246FFF7F2FE89
:100E2000084305D0012004E020463946BDE8F08D96
:100E30000020054346EAE0762C4337430A986305D1
:100E4000E40AA0EB08000022FD0A44EA47540A30F5
:100E500002D500200146E9E7010510196941DDE9E5
:100E6000084500196941BDE8F04DA2E70EB540F212
:100E7000334202920022CDE900221346FFF7A8FF79
:100E800003B000BDC1F30A52C1F3130140F2FF33B6
:100E900041F480119A4202DA00200146704740F284
:100EA00033439A42A2F2334202DC5242FFF7B9BE08
:100EB000FFF7A8BE064C074D06E0E06840F00103CE
:100EC00094E8070098471034AC42F6D3FFF788F94E
:100ED0000820010828200108C0B24FF4F05100F0AA
:100EE00001B800007F2801D9002208E0064A02EB81
:100EF0005002C007127800D1120902F00F0201203F
:100F00009040084070470000C69700082DE9F04760
:100F100001264FEA42084FEA51090024002506EB5A
:100F2000510C6FF0010606EB510E00BFADB266002A
:100F3000AC4228D250F8267050F83520E900043130
:100F400040F8262040F8357046F0010250F822A003
:100F5000475840F8227040F801A004EB0C0105EB63
:100F60000C0750F831A050F8372040F83120C90064
:100F700040F837A0FF000431043750F801A0C259EF
:100F8000425040F807A000EB86014D448A6850F8B3
:100F900035608E6040F83520ED000435CA6846594A
:100FA000CE604251A21C03EB080194B21D880B468F
:100FB000744588BFBDE8F087B8E7B0B582B00C468D
:100FC00005468389426801888078012805D128690F
:100FD0000090204600F0EAF902E0204600F0E2F836
:100FE000E87801281CBF02B0B0BDAB68EA89298847
:100FF000204602B0BDE8B040FFF788BF4AF2080CB7
:10100000FF29C0F6000CC0F804C00180C3708270D4
:1010100049F606024FF0FF03C0F600020EDDB1F5FF
:10102000806F16DB29D0B1F5805F2BD0B1F5006F52
:1010300041D102324FF06851022337E03F2913DCDF
:10104000102923D0202936D1FE324FF0745180234D
:101050002CE0B1F5807F20D0B1F5007F2BD10E328E
:101060004FF06C51082321E040291BD0802922D168
:101070003E324FF07051202318E006324FF06A5193
:10108000042313E04FF0665101230FE002F5FF72D5
:101090004FF076514FF4807308E01E324FF06E51DE
:1010A000102303E07E324FF072514023C3818381CD
:1010B00000230161826058B2704700002DE9F043BF
:1010C00081B00546002090460C46B0EB920F4CD004
:1010D0004FEA9800C0F10009D5E900070146FFF783
:1010E0000BFB064638463946FFF706FB01463046FD
:1010F000FFF7AAFA06F0D2FD2060D5E90206014604
:10110000FFF7FAFA074630463146FFF7F5FA01468F
:101110003846FFF799FA06F0C1FD6060D5E904068C
:101120000146FFF7E9FA074630463146FFF7E4FA91
:1011300001463846FFF788FA06F0B0FDA060D5E911
:1011400006060146FFF7D8FA074630463146FFF754
:10115000D3FA01463846FFF777FA06F09FFDE060C4
:101160001034203519F10109B6D118F0030016D05A
:10117000474200BFD5E900060146FFF7BDFA8046A9
:1011800030463146FFF7B8FA01464046FFF75CFAB1
:1011900006F084FD44F8040B08350137EAD101B0AC
:1011A000BDE8F0832DE9F04F8FB0CDE90232009019
:1011B000480809910B900020B0EB510F56D00B98C6
:1011C000DDF800B0DDF80C90C1000E9141420298AC
:1011D000C00008900E980D910BEB00065BF80050D4
:1011E0000C96DBE9007829463846FFF72DFAD6F849
:1011F00004A0D9E90041CBF8000040460A915146CD
:10120000FFF722FACBF8040038462946FFF76EFABA
:10121000054640465146FFF769FA074620462946EB
:10122000A846FFF769FA0A9D064639462846FFF7A1
:1012300063FA01463046FFF707FA0E994BF80100B2
:1012400020463946FFF758FA064628464146FFF73A
:1012500053FA01463046FFF749FADDE90C210BF15C
:10126000080B5060089801318144B3D1099E0B9A54
:10127000062E78D3104600BF01905008DDF800908C
:10128000D7004FF0000800234FEAC00B05900298EA
:101290004000029080B20490CDE90A72039906934F
:1012A00051F833000D90D800043008580C90CDE967
:1012B000079800BF09EB0B0659F80B700E96D9E999
:1012C000004A39462046FFF7BFF97568C9F80000A3
:1012D00050462946FFF7B8F9C9F8040020463946B8
:1012E000FFF704FA074650462946FFF7FFF90D9E1F
:1012F000044639463046FFF7FFF9DDF830A00546D1
:1013000021465046FFF7F8F901462846FFF79CF9B9
:1013100049F80B0030462146FFF7EEF904465046E7
:101320003946FFF7E9F901462046FFF7DFF9DDE925
:101330000A72099E0E999044B9444860B045B9D3E9
:101340000498069BDDF82080DDF81C900344059886
:1013500008F1010809F1080980459FD30199059A10
:101360004808052988D8009DE6B10024D5E9008AFF
:10137000D5E9029750463946FFF7B8F9E86040468C
:101380004946FFF7B3F9A86050463946FFF75CF9C4
:10139000686040464946FFF757F902342860103527
:1013A000B442E3D30FB0BDE8F08F00002DE9F04F59
:1013B0008FB0CDE9023200904808099105900020D5
:1013C000B0EB510F54D0DDF81490DDF800B0039C61
:1013D0004FEAC9000E900298C0000B900E980BEBDC
:1013E00000065BF800500D96DBE900782946384688
:1013F000FFF72AF9D6F804A0D4E90061CBF8000081
:1014000040460C915146FFF71FF9CBF804003846CF
:101410002946FFF76BF9054640465146FFF766F946
:10142000074630462946AA46FFF766F90C9D8046D6
:1014300039462846FFF760F901464046FFF756F95E
:101440000E994BF8010030463946FFF755F906462C
:1014500028465146FFF750F93146FFF7F5F80D9948
:101460000BF1080BB9F1010948600B980444B5D1A0
:10147000099F062F77D33846059A0190DDF8009032
:101480004FF0000800235008D6004FEAC00B05902B
:1014900002984000029080B20490CDE90A6200BF39
:1014A0000399069351F833000D90D8000430085882
:1014B0000C90CDE9079800BF09EB0B0659F80B70AB
:1014C0000E96D9E9004A39462046FFF7BDF87568FF
:1014D000C9F8000050462946FFF7B6F8C9F80400DD
:1014E00020463946FFF702F9074650462946FFF7DE
:1014F000FDF80D9E044639463046FFF7FDF8DDF84D
:1015000030A0054621465046FFF7F6F8014628462A
:10151000FFF7ECF849F80B0030462146FFF7ECF8EE
:10152000044650463946FFF7E7F82146FFF78CF8A6
:10153000DDE90A62099F0E999044B1444860B845BC
:10154000BAD30498069BDDF82080DDF81C90034494
:10155000059808F1010809F108098045A0D301990F
:1015600048080B2988D8009C57B3DDF86080002616
:10157000D4E9009BD4E902A558462946FFF7B6F8FE
:101580004146FFF7B9F8E06048465146FFF7AEF82C
:101590004146FFF7B1F8A06028465946FFF754F8D6
:1015A0004146FFF7A9F8606048465146FFF74CF8FE
:1015B0004146FFF7A1F8023620601034BE42D7D36F
:1015C0000FB0BDE8F08F10B5846AE16D11F0500FD7
:1015D00006D0E16DC90625D5204601F057F910BDAA
:1015E000E06D40F40070E06520680168090716D5D9
:1015F00003F0A8FD78B12068C068800400280ADBE9
:10160000E06D20F48070E065E06DC00403D4E06D0F
:1016100040F00100E065204601F036F910BDC068D9
:101620008007EBE7616D496BBDE81040084710B5D6
:10163000806AC16D41F04001C165016E41F0040155
:10164000016601F023F910BD10B5806A01F01DF9A3
:1016500010BD000070B504460068816811F0010FEC
:101660002DD18168174A11421AD18168D54329408A
:10167000491C816001F0CAFD06461BE0816811F03B
:10168000010F03D181682940491C816001F0BEFD32
:10169000801B02280ED920680068C043C00709D00B
:1016A000E06D40F01000E065206E40F00100206623
:1016B000012070BD20680168C943C907DED1002040
:1016C00070BD00003F00008038B5164802F010FEE3
:1016D000154802F00DFE4FF40074224613491448D9
:1016E00001F04AFA03F072FD002003F04BFD11A255
:1016F0002821124805F0E4F91048009000234FF427
:1017000078427021882000F019FA03F06DFC01B0D6
:1017100021460A48BDE83040012300228030FFF70F
:101720006DBC000094010020E0010020680400204E
:101730006400002048454C4C4F210000D403002099
:101740002DE9F05F2DED0A8BADF5215D0024DFF86A
:10175000C8B29FEDB28A4FF4007ADFEDB18A41F64C
:101760001C08E8449FEDAFBADFEDAFBA3BF81410A8
:1017700000297DD000212BF8141034B1012C07D0A2
:10178000022C09D0032C1ED1D4E0A84801701AE025
:10179000A6490120087016E0A5480068C26A4FF407
:1017A000A0418A4204D2C26A012101EB4201CCE08D
:1017B000826A8A4204D2826A012101EB4201CFE0AF
:1017C000642001F0E3FB4FF4006529464046FEF734
:1017D00069FD42F21C0029466844FEF763FD0DF6E0
:1017E0001C0969004846FEF75DFD0027914A39460D
:1017F0005046464632F8113046F82130491C8142A5
:10180000F8D300259FED8C9B9FED8DAB9FED8ECA8D
:1018100056F82500FFF73BF953EC192BFFF745F875
:1018200053EC1A2BFFF741F8FFF7BAF900EE100A54
:1018300009EBC50080ED000A20EE080A80ED01CA20
:10184000BCEEC00A10EE100A46F825006D1C554586
:10185000DED34D4649467D48FFF7AFFB0DF1180931
:10186000524649462846FFF729FC9DED060A00E04E
:10187000C4E020EE280A00208DED060A9FED740AD0
:101880004946524601EB8003401CD3ED000A9042CA
:1018900060EE800AC3ED000AF4D342F21C0500207A
:1018A0000DEB050501EB800393ED000A20EE080A1D
:1018B000BCEEC00A10EE103A45F82030401C9042B1
:1018C000F0D3002055F8273055F82010994200D960
:1018D00087B2401C9042F5D3554800688146806A23
:1018E000401CFFF7D4F841EC190BD9F82C00401C30
:1018F000FFF7CDF841EC100B53EC102B9FED550B7F
:1019000051EC100BFFF743F853EC192BFFF73FF89E
:10191000FFF746F900EE107A09EE900A4348B8EE58
:10192000400A007820EE290A20EE289AD0B101283A
:1019300064D134E03E480068C16A0A2907D9C16A07
:101940004FF0FF32491C02EB5101C16238E7816A56
:101950000A29FBD9816A4FF0FF32491C02EB510181
:1019600081622DE703F056FBF0EE4B1AB0EE6B1AD6
:10197000DFED3A0A9FED3A0A4FF48071304600F0ED
:10198000F5F919EE100AFFF7C7F805460E4619EEED
:10199000900AFFF7C1F80A468DE865001CE003F0E5
:1019A00039FBF0EE4B1AB0EE6B1ADFED2C0A9FED0F
:1019B0002C0A4FF48071284600F0D8F919EE100A6D
:1019C000FFF7AAF805460E4619EE900AFFF7A4F8AD
:1019D0000B4602468DE86C001C4822A22821803864
:1019E00005F06EF819480023803800904FF47842D3
:1019F0001946184600F0A2F803F0F6FA641CE4B2A7
:101A0000042CFFF4B3AE0DF5215D6420BDEC0A8B10
:101A1000BDE8F05F01F0BABA3000002000007A445F
:101A20000000003B6666663F3333733F380000209A
:101A30002C020020680400206666666666660A401E
:101A4000000000000000303F0000000054040020AF
:101A50000000803B00000000D012A341CDCCCC3D63
:101A6000CDCC4C3E5361467265713A252E316648A5
:101A70007A205761467265713A252E3166487A00A0
:101A8000FEE70000014801F07EB90000D000002010
:101A9000704700000D4902688A4201D20C4901E0FA
:101AA0000B492031D2B21423083AB2FBF3F2436C53
:101AB00002F01F0223F003031944816404498031BA
:101AC000C164012191400165704700000804024093
:101AD000000802400179074A02EB81024265054A8B
:101AE0004432491E826501F01F0201219140C16507
:101AF00070470000FC08024030B5D0E9134565602E
:101B0000446D14B1D0E91645656090F8444004F086
:101B10001F050124AC40056C6C6004686360836839
:101B2000102B036803D099600068C26030BD9A60D2
:101B30000068C16030BD704772B6FEE72DE9FF4F07
:101B400083B089460446DDF840B00090A4E08028C8
:101B50003ED20D2804D0202808D9203880B206E0D3
:101B600009F110001FFA80F9009C2EE00020DFF838
:101B700038A100264FF0800801900198002506EB5F
:101B8000001700BF1AF8071028FA05F0014206D026
:101B900009EB060081B2601980B2059A09E0DDE91F
:101BA0000501884207D009EB060081B2601980B2B6
:101BB000069A00F0D2F86D1CEDB2082DE2D3761C27
:101BC000F6B2102ED9D30834A4B20BF1010B63E0A6
:101BD0004FF00008354808EB08119BF8002010F87A
:101BE000113093424DD100EB4100019041789BF8B8
:101BF0000100814245D100254FF0800A019800265E
:101C000000EB45072AFA06F0B978014206D009EB45
:101C1000050081B2A01980B2059A09E0DDE905014D
:101C2000884207D009EB050081B2A01980B2069A5C
:101C300000F093F8761CF6B2082EE3D30026F9786C
:101C40002AFA06F0014207D009EB050081B2A0197B
:101C5000083080B2059A0AE0DDE90501884208D023
:101C600009EB050081B2A019083080B2069A00F095
:101C700074F8761CF6B2082EE1D36D1CEDB2102D6F
:101C8000BCD308F101001FFA80F8B8F1320FA1D3DC
:101C900010340BF1020BA4B29BF8000000287FF473
:101CA00056AF07B0BDE8F08FEE7D0008608B0008EE
:101CB0002DE9F84F1C4615460E46804603F0C2FB40
:101CC000B5EB0805A4EB06044FF0FF3002D44FF04B
:101CD000010B01E083466D42002C02DB4FF001094D
:101CE00001E08146644268004FEA440A0090A54240
:101CF00019DDAAEB0504002711E0314640460A9A97
:101D000000F02BF8002C04DB0098241A06EB0900E5
:101D100086B208EB0B0054441FFA80F87F1CAF42D8
:101D2000EBDDBDE8F88F0098051B002712E0314677
:101D300040460A9A00F011F8002D05DB08EB0B0075
:101D4000A5EB0A051FFA80F800987F1C054406EBF6
:101D5000090086B2A742EADDE3E710B5144603F0B6
:101D600071FB2046BDE8104003F080BB2DE9F34F26
:101D70000F462DED040B10EE100A2DED068B9DB0D5
:101D8000B0EE618AF0EE418AB0EE609AFEF7C4FED2
:101D90009FEDFEAB53EC1A2BFEF787FDFEF7A3FE7B
:101DA0001FFA80F919EE100AFEF7B6FE9FEDF99BB7
:101DB00053EC192BFEF779FDFEF795FE80B20390E8
:101DC00018EE900AFEF7A8FE53EC1A2BFEF76DFDF5
:101DD000FEF789FE1FFA80FB18EE100AFEF79CFE44
:101DE00053EC192BFEF761FDFEF77DFE81B20398DF
:101DF0000791081A0421149090FBF1F0002015902F
:101E00004FF6FF701690E5481F26007810B9159818
:101E100003F0B8F9279800210468A24609E0279842
:101E200050F82100A04200D90446504500D2824615
:101E3000491CB942F3D30125002092E1D7484188DB
:101E40008D427DD2B845FCD24846FEF720FE41ECDB
:101E5000190B0A901091ABEB0900FEF707FECDE9D4
:101E60000E0141EC180B3846FEF711FE41EC1A0B3F
:101E700009900C914046FEF70AFE53EC1A2B08918C
:101E80000690FEF784FD53EC182BFEF70EFD53EC85
:101E9000192BFEF763FCFEF726FEC14982B201EB67
:101EA000850030F804CC62457ED2B8F1000F4CD0EA
:101EB0000398FEF7ECFD41EC180B1498FEF7D6FDE5
:101EC00041EC190BA4EB0A00FEF7E1FD41EC1A0B03
:101ED000279850F82800201AFEF7D9FD53EC1A2B4A
:101EE000FEF755FD53EC192BFEF7DFFC53EC182BD6
:101EF000FEF734FCFEF7F7FD80B2129010990A98B5
:101F000041EC180BDDE90E0141EC190B0C99099815
:101F100041EC100B089953EC102B0698FEF737FD97
:101F200053EC192BFEF7C1FC53EC182BFEF716FCF3
:101F3000FEF7D9FD82B2169800909848C18800E05B
:101F400053E08088129BFFF7B3FE10990A9841EC8A
:101F5000180BDDE90E0141EC190B0C99099841ECC5
:101F6000100B089953EC102B0698FEF710FD53EC5C
:101F7000192BFEF79AFC53EC182BFEF7EFFBFEF73C
:101F8000B2FD864988800398FEF781FD41EC180B6D
:101F90001498FEF76BFD41EC190BA4EB0A00FEF759
:101FA00076FD41EC1A0B00E012E0279850F828006B
:101FB000201AFEF76CFD53EC1A2BFEF7E8FC53ECED
:101FC000192BFEF772FC41EC100B53EC182BBEE002
:101FD000724A1278EAB1E5B1159A009231F82520DB
:101FE000438830F8021C604611E08D4213D26B48E2
:101FF000007870B16DB115986949009001EB8500CA
:1020000031F82520438830F8021C30F8040CFFF723
:102010004FFE6D1C12E7B8457ED2B8F1000F4FD0CD
:102020000398FEF734FD41EC180B1498FEF71EFDE3
:1020300041EC1A0BA4EB0A00FEF729FD41EC190B49
:10204000279850F82800201AFEF721FD53EC192B91
:10205000FEF79DFC53EC1A2BFEF727FC53EC182BD4
:10206000FEF77CFBFEF73FFD80B208904846FEF786
:102070000EFD41EC180BABEB0900FEF7F7FC41EC51
:10208000190B3846FEF703FD41EC1A0B4046FEF7EC
:10209000FEFC53EC1A2BFEF77AFC53EC192BFEF7DF
:1020A00004FC53EC182BFEF759FBFEF71CFD82B223
:1020B000169800903948089BC1888088FFF7F8FD82
:1020C0004846FEF7E4FC41EC180BABEB0900FEF7C9
:1020D000CDFC41EC190B3846FEF7D9FC41EC1A0B4C
:1020E0004046FEF7D4FC53EC1A2BFEF750FC53ECA1
:1020F000192BFEF7DAFB53EC182BFEF72FFBFEF73C
:10210000F2FC264988800398FEF7C1FC41EC190BCC
:102110001498FEF7ABFC00E025E041EC180BA4EBB3
:102120000A00FEF7B4FC41EC1A0B279951F828007D
:10213000201AFEF7ACFC53EC1A2BFEF728FC53ECEC
:10214000182BFEF7B2FB53EC192B41EC100B51ECA2
:10215000100BFEF703FBFEF7C6FC1049C88008F120
:10216000010080466AE6002559E04846FEF78FFCEC
:1021700041EC180BABEB0900FEF778FC41EC190BB6
:102180003846FEF784FC41EC1A0B0BE0000000001F
:10219000000074400000000000006E403A00002083
:1021A000680800202846FEF772FC53EC1A2BFEF755
:1021B000EEFB53EC192BFEF778FB53EC182BFEF7D4
:1021C000CDFAFEF790FCDFF8F88028F82500039898
:1021D000FEF75DFC41EC180B1498FEF747FC41EC50
:1021E0001A0BA4EB0A00FEF752FC41EC190B2798DE
:1021F00050F82500201AFEF74AFC53EC192BFEF785
:10220000C6FB53EC1A2BFEF750FB53EC182BFEF7D2
:10221000A5FAFEF768FC08EB85016D1C4880BD42FD
:10222000A3D3DFF8A0804A461046A8F802700096B3
:10223000039B0799FFF73CFD039907980096451803
:102240006F083B465A4619464846FFF731FD039C46
:10225000A9F10300E41C82B20096A3B24846039998
:10226000FFF726FD09F1030082B2A3B200964846AB
:102270000399FFF71DFD6FF0020000EB550083B2DC
:10228000ABF10304A2B2394658460096FFF710FDA1
:10229000032000EB550083B2A2B23946584600969F
:1022A000FFF706FD98F80000002802D1012188F808
:1022B00000101DB0BDEC068B06B0BDE8F08F00002D
:1022C000680800203A0000202DE9F04F044690F8FD
:1022D00058009BB00F464FF0000B012812D0012090
:1022E00084F8580000261796189620684FF0A048EA
:1022F000DFF81C91DFF81CA1474D404506D1284668
:10230000009508E002201BB0BDE8F08F48450AD1D7
:102310005046CDF800A002F011FF0090206802F0B6
:102320000DFF40B109E0E06D40F02000E06584F869
:1023300058600120E7E7009850B1E06D40F02000C0
:10234000E0654FF0010B00BF84F858605846DAE7AB
:1023500020684146884201D0A84201D12F4800E0C0
:102360002F48D7F800C02F4B40F61F72BCF1000F6A
:102370002DD0D0F808C094F838802CF4604C4CEA8A
:10238000483CD7F804804CEA080CC0F808C0D4F8E0
:1023900000C08C4501D0AC4504D18968AB6801F020
:1023A000010109E0D9F80810DAF8085001F001013C
:1023B00005F001059B68294303F001031943C3D1CC
:1023C000BB68396819438368934319431DE08768E4
:1023D00027F46047876027688F4201D0AF4204D15D
:1023E0008968AB6801F0010109E0D9F80810DAF852
:1023F000085001F0010105F001059B68294303F035
:1024000001031943A0D18168914381609CE70000DA
:10241000000400500005005000010050000300506F
:1024200000070050000600502DE9F84F0027044631
:10243000009790F85800DFF814840D46B94601283B
:1024400011D0012684F85860206802F073FE60B154
:10245000E06D40F02000E0655FF0010784F85890DF
:102460003846BDE8F88F0220FBE7D5E900210C23B0
:10247000206803EA91131844036B01F01F014FF029
:102480001F0C0CFA01FCC2F3846223EA0C038A409D
:1024900013430363206802F04DFE8246206802F079
:1024A00045FE5AEA00003CD1AA6829682068B2F1CA
:1024B000004F37D002F04EFE2068416921F0004104
:1024C000416120686969C268C2F3C102520091404B
:1024D0002A69042A31D000EB82002B68026EDFF8F3
:1024E00070C303F0F84302EA0C020B431A4342F0B4
:1024F0000041016622682869A96902EB8000026E2A
:1025000022F080720A430266297F20682A69012925
:1025100010D0002100EB8200026E22F000720A430C
:1025200002667DE0002202F015FE2068416941F05C
:102530000041C5E74FF00071ECE7002102F0F0FD2B
:10254000400320684FF0000172D002F0E9FD90FADC
:10255000A0F0B0FA80F1286842036ED090FAA0F0A3
:10256000B0FA80F0814204D100221146206802F0C6
:1025700000FE0121206802F0D3FD400320684FF0E7
:1025800001015DD002F0CCFD90FAA0F0B0FA80F12C
:102590002868420359D090FAA0F0B0FA80F0814246
:1025A00004D100220121206802F0E3FD022120680D
:1025B00002F0B6FD400320684FF0020148D002F05F
:1025C000AFFD90FAA0F0B0FA80F12868420344D041
:1025D00090FAA0F0B0FA80F0814204D100220221EA
:1025E000206802F0C6FD0321206802F099FD400337
:1025F00020684FF0030133D002F092FD90FAA0F072
:10260000B0FA80F1286842032FD090FAA0F0B0FA17
:1026100080F0814204D100220321206802F0A9FD4C
:102620002068816811F0010F22D0A8E000E004E0EA
:1026300002F076FDC0F384618DE7C0F3846091E71A
:1026400002F06EFDC0F38461A2E7C0F38460A6E7E8
:1026500002F066FDC0F38461B7E7C0F38460BBE7B6
:1026600002F05EFDC0F38461CCE7C0F38460D0E784
:10267000EB682968434550F8B03FC1F3120101D11E
:102680000B4300E08B430360E868404577D128683E
:1026900041031CD090FAA0F1B1FA81F1491C01F07C
:1026A0001F0109294FEA403132D8002912D000BF5A
:1026B00090FAA0F1B1FA81F101F1010101F01F01DD
:1026C00006FA01F609D100BFC0F3846109E0C0F346
:1026D0008461E3E7C0F38461EEE790FAA0F1B1FA18
:1026E00081F101F1010101F01F0146EA816102D18E
:1026F000C0F3846003E090FAA0F0B0FA80F000F13B
:10270000010000F01F0000EB400041EA005132E000
:1027100000290ED090FAA0F1B1FA81F101F1010186
:1027200001F01F0106FA01F606D100BFC0F3846173
:1027300006E0C0F38461F1E790FAA0F1B1FA81F10B
:1027400001F1010101F01F0146EA816102D1C0F3EC
:10275000846003E090FAA0F0B0FA80F000F101008C
:1027600000F01F003B4A00EB400002EB005041EA42
:10277000000141F00071AA68206802F0EBFC3648C5
:102780002B6803423FF46AAE22684FF0A04C3348F6
:10279000334E344D624501D0AA4201D1014600E0DA
:1027A00031468968DFF8C08001F0E071434503D00D
:1027B000DFF8B880434521D15FEA01281ED4624585
:1027C00006D02B4B9A427FF449AEAA4200D0304645
:1027D00041F40001826822F0E0720A4382602548D9
:1027E00025490068B0FBF1F0401C00EB4000800080
:1027F00000E0401E00900028FBD12FE6DFF87C802F
:1028000043450FD15FEAC1180CD4AA4202D11C4B38
:102810009A42F2D0624502D0AA4200D0304641F03E
:1028200080710CE0DFF85C804345E6D14B02E4D4D4
:10283000AA42E2D0624500D0304641F4800182686D
:1028400022F0E0720A43826008E6000000007F4048
:1028500000F0FF03000020FE00000880000300508D
:102860000007005000010050000021C31000C0907C
:10287000000600500C000020400D0300000052C76D
:1028800000050050000084CB70477047704700007F
:10289000F8B54FF0000504002E46009502D0E06D1B
:1028A00010B107E00120F8BD204600F00DF92666C2
:1028B00084F8586020688168C1F3407119B181685B
:1028C000754A1140816020688168C1F3007189B93F
:1028D0008168724A114041F08051816070487149AD
:1028E0000068B0FBF1F04000801C00E0401E00904A
:1028F0000028FBD120688168C1F3007141B9E16D06
:1029000041F01001E165216E41F0010121660125D0
:1029100002F010FCE16DC90600D430B1E06D40F06A
:102920001000E06501252846F8BDE06D20F48070B8
:1029300040F00200E0652068816811F0010F27D1A6
:102940004FF0A043584A984201D0904204D1996870
:10295000966801F001010AE054498968544E01F07B
:102960000101B66806F001063143524EB66806F022
:10297000010631430CD1984201D0904201D14E481A
:1029800000E04E486168826822F47C120A4382604B
:10299000E168E06B627F0843A16841EA4231084385
:1029A00094F8241040EA0140012904D1218D444AC1
:1029B00002EB41410843E16A29B101F47871226BCD
:1029C000014342EA01002168CA683E4B1A400243B3
:1029D000CA6020680169626B21F0406111430161A6
:1029E000206802F0A7FB0646206802F09FFB3043F8
:1029F0002ED1207F94F83810800340EA41012068EE
:102A0000C26844F202039A430A43C2602069002864
:102A1000206801690AD041F480310161206850F8D2
:102A2000C01F22696FF30D01114307E021F48031CB
:102A30000161206850F8C01F6FF30D01016094F828
:102A4000400001280CD02068016921F001010161DA
:102A5000606901282068016B21F00F0111D013E09B
:102A6000D4E911010843D4E9131211430843216842
:102A70000A6940F2FC739A43104340F00100086178
:102A8000E6E7226A521E11430163E06D20F0020066
:102A900040F00100E06546E7C0FFFF5FC0FFFF7F39
:102AA0000C000020400D0300000100500004005005
:102AB00000050050000600500003005000070050C1
:102AC0000000FEFF0740F0FF70B59CB005461421E2
:102AD00015A8FDF7E7FB54216846FDF7E3FB2868DE
:102AE000B0F1A04F3DD14FF4004000908003119011
:102AF000684600F089FC08B1FFF71EF81A49C86C57
:102B000040F40050C864C86C00F400501A90C86CBF
:102B100040F00200C864C86C002600F002001A9061
:102B2000012015900320CDE9160615A90F4800F0E5
:102B30003FFA104C0E4820600520C4E901068020B1
:102B4000C4E90360400060618000A0612020C4E906
:102B50000706204600F074F908B1FEF7EDFF6C653A
:102B6000A5621CB070BD00000010024000040048C7
:102B700008000240D00000202DE9F047044600681C
:102B80004FF0A0483D4F91468A46404501D0B8429B
:102B900001D13B4900E03B49896801F01F0502F083
:102BA000C9FA002868D194F85800012864D001209F
:102BB00084F8580034492068884201D1012000E09F
:102BC0000020401E28424FF0000605D0052D03D0FE
:102BD000092D01D0012003E02046FEF73BFD18B18E
:102BE00084F85860BDE8F087E06D40F601618843E5
:102BF00040F48070E0652068B84201D1414605E0AC
:102C00002249884201D1224900E00146814200D098
:102C10001DB9E06D20F48010E065E06DC00404D5BE
:102C2000206E20F00600206600E02666616D1948DF
:102C3000C862616D18480863616D1848486321686F
:102C40001C20086084F858602068416841F0100139
:102C500041602068C16841F00101C16021684B46B4
:102C600052464031606D00F04BF921688A680C4B88
:102C70001A40121D8A60B5E70220B3E70001005038
:102C800000030050000700500006005000050050EF
:102C900000040050C7150008491600082F16000848
:102CA000C0FFFF7F10B590F8253000210122022BD4
:102CB00003D00421C163012122E003681C6824F0D1
:102CC0000E041C60836C1C6824F480741C60036810
:102CD0001C6824F001041C6090F84430046C03F07C
:102CE0001F0302FA03F36360D0E913345C60436DA1
:102CF00033B11C6824F480741C60D0E916345C6025
:102D000080F82520002280F82420084610BD70B5E8
:102D100090F82520002401212346022A07D004220E
:102D2000C26380F8251080F82430012429E002686D
:102D3000156825F00E0515600268156825F0010577
:102D40001560826C156825F48075156090F8442034
:102D5000056C02F01F0201FA02F26A60D0E9132545
:102D60005560426D32B1156825F480751560D0E963
:102D70001625556080F8251080F82430816B01B14C
:102D80008847204670BDF0B4016C0C6801680D687E
:102D900090F8442002F01F06042202FA06F32342B0
:102DA00011D06B070FD50B689B0603D40B6823F07B
:102DB00004030B6090F8441001F01F018A40016C7D
:102DC0004A60016B1DE0022303FA06F727424FF029
:102DD000000C4FF0010218D0AF0716D50C68A406FE
:102DE00005D40C6824F00A040C6080F8252090F8C3
:102DF000441001F01F018B40016C4B6080F824C02F
:102E0000C16A00291AD0F0BC08470823B340234206
:102E100014D02B0712D50B6823F00E030B6090F82B
:102E20004410036C01F01F0102FA01F15960C26302
:102E300080F8252080F824C0416BE2E7F0BC7047A1
:102E400070B504000CD02B4A21681420914209D29D
:102E5000294A0A44B2FBF0F08000606427480AE087
:102E6000012070BD234A52420A44B2FBF0F08000B8
:102E70006064204808382064022084F825000A682D
:102E800047F6F0708243D4E902031843D4E90435CD
:102E90002B431843A3691843E3691843236A184373
:102EA000104308602046FEF7F5FDA0680025B0F548
:102EB000804F00D16560A16C20790860D4E91301CE
:102EC00041606068401E032808D82046FEF702FED5
:102ED000606D0560D4E91601416002E06565A56595
:102EE000E565E563012084F8250084F8245000207E
:102EF00070BD000008040240F8FFFDBF0000024062
:102F000070B5044690F82400002501280CD001205B
:102F100084F8240094F825600020012E06D084F85F
:102F200024000225284670BD022070BD022684F8C8
:102F30002560E0632068066826F0010606602046EA
:102F4000FEF7DAFD206B00282068016802D041F00E
:102F50000E0106E021F0040101602068016841F0E3
:102F60000A010160A06C0168C90303D5016841F43E
:102F700080710160606D18B1016841F48071016079
:102F80002068016841F001010160CBE770B504469B
:102F900000F03CF90546601C02D004484068044437
:102FA00000F034F9401BA042FAD370BD00000020AD
:102FB0002DE9F04FDFF82092002301260324A9F128
:102FC000040B85B00F2709F1040AABF1040EFAE0F7
:102FD00006FA03F52A407CD091F804C00CF0030CEB
:102FE000BCF1010F02D0BCF1020F26D1D0F808C00D
:102FF000CDF800C04FEA430C04FA0CF8CDF810C02D
:10300000DDF800C02CEA080CCDF800C0D1F80C8027
:10301000DDF810C008FA0CF8DDF800C048EA0C082A
:10302000C0F80880D0F804C02CEA050C0D79C5F36F
:1030300000159D4045EA0C0545600D79ED43AD074F
:103040000ED0C5684FEA430804FA08FC25EA0C05CF
:10305000D1F808C00CFA08FC4CEA050CC0F80CC00A
:103060000D7905F00305022D16D1DD0800EB850C66
:10307000CDF808C0DCF820805D074FEAD56C07FA70
:103080000CF528EA05080D6905FA0CF5DDF808C00D
:1030900045EA0805CCF8205005684FEA430CCDF806
:1030A00008C004FA0CFC25EA0C0591F804C00CF0E9
:1030B0000308DDF808C008FA0CF848EA0508C0F86B
:1030C00000804D6815F4403F7CD0444DD5F860C079
:1030D00000E077E04CF0010CC5F860C02D6E23F0E5
:1030E000030C05F0010500953D4D65440295AD6862
:1030F0004FEA837C4FEA1C7807FA08FC25EA0C05A6
:10310000B0F1904F06D0DFF8DCC0604505D14FF03C
:10311000010C20E04FF0000C1DE0DFF8CCC0604552
:1031200002D14FF0020C16E0DFF8C0C0604502D1BA
:103130004FF0030C0FE0DFF8B8C0604502D14FF04C
:10314000040C08E0DFF8ACC0604502D14FF0050C7C
:1031500001E04FF0060C0CFA08FC4CEA050C029D4D
:10316000C5F808C0D9F80050CC46D1F80480954382
:103170005FEAC82800D51543CCF80050DAF80050B3
:10318000D446D1F8048095435FEA882800D51543DA
:10319000CCF80050DBF80050DC46D1F804809543B1
:1031A0005FEA883800D51543CCF80050DEF80050AF
:1031B000F446D1F8048095435FEAC83800D515433A
:1031C000CCF800505B1C0A6832FA03F57FF400AFBC
:1031D00005B0BDE8F08F0000080401400010024077
:1031E000000001400004004800080048000C0048AE
:1031F00000100048001400480069084000D0012079
:1032000070470AB1816170478162704701488068E8
:1032100070470000000000200248816842681144A5
:10322000816070470000002010B50024032000F0EA
:1032300073F80F2000F008F808B1012401E000F055
:1032400025F8204610BD000070B50E4E054600243E
:10325000706898B14FF47A71B1FBF0F00A490968CF
:10326000B1FBF0F000F00AFF40B9102D06D20022A9
:103270002946501E00F030F8356000E00124204659
:1032800070BD0000000000200C0000200A4882B041
:10329000016E41F001010166016E01F00101009132
:1032A000816D41F080518165806D00F0805000900B
:1032B00002B000F0A1B8000000100240002809DBB5
:1032C00000F01F02012191404009800000F1E02040
:1032D000C0F8001170470000F0B40E4B1B680C469C
:1032E000C3F30223C3F10705042D00D90425191DDA
:1032F000072901D2002300E0DB1E012606FA05F1B2
:10330000491E214099409E40761E16403143F0BC34
:1033100003F0EEBB0CED00E0064900F00702086880
:103320004FF6FF03184040EA0220034A10430860AA
:10333000704700000CED00E00000FA052B492C4B13
:103340000A6832214A432B4940B1B0F5007F086832
:1033500029D020F4C06040F480602CE00868C0F3FD
:103360004120022804D051F8800F20F4807022E020
:10337000D1F8800020F48070C1F88000086820F443
:10338000C06040F400700860B2FBF3F0401C00E045
:10339000401E4A69520501D50028F9D14869400507
:1033A0000AD503207047C0F34120022806D051F807
:1033B000800F40F48070086000207047D1F88000D2
:1033C00040F48070C1F88000086820F4C06040F4C8
:1033D00000700860B2FBF3F0401C00E0401E4A6938
:1033E0005205DBD50028F9D1D8E700000C000020F9
:1033F00040420F00007000400248816841F4804163
:1034000081607047007000402DE9F8430446006871
:103410000026BB4D00035ED5A86D0027C00008D470
:10342000A86D40F08050A865A86D012700F080507D
:103430000090DFF8D092D9F8001041F48071C9F8FB
:103440000010FFF7E3FE804606E000BFFFF7DEFE58
:10345000A0EB080002282BD8D9F80000C005F5D54C
:10346000D5F8900010F4407014D0216D814211D035
:10347000D5F89000D5F8901020F4407041F48031D8
:10348000C5F89010D5F8901021F48031C5F890104F
:10349000C5F89000C00711D0FFF7B8FE804641F292
:1034A000883907E0FFF7B2FEA0EB0801494501D9D2
:1034B00003260BE0D5F890008007F3D5D5F89000EF
:1034C000216D20F440700843C5F890001FB1A86D2D
:1034D00020F08050A8652078C00707D0D5F8880074
:1034E000616820F003000843C5F888002078800751
:1034F00007D5D5F88800A16820F00C000843C5F86E
:1035000088002078400707D5D5F88800E16820F0CA
:1035100030000843C5F888002078000707D5D5F8A3
:103520008800216920F0C0000843C5F88800207891
:10353000C00607D5D5F88800616920F440700843BB
:10354000C5F888002078800607D5D5F88800A169DD
:1035500020F440600843C5F888002078400607D56D
:10356000D5F88800E16920F440500843C5F8880088
:103570002078000607D5D5F88800216A20F440405D
:103580000843C5F888002088C00507D5D5F888000D
:10359000616A20F440300843C5F888002068800341
:1035A00007D5D5F89C00A16A20F003000843C5F8B0
:1035B0009C002088800507D5D5F88800E16A20F4B2
:1035C00040200843C5F88800208840050FD5D5F86D
:1035D0008800216B20F440100843C5F88800206B58
:1035E000B0F5801F03D1E86840F48010E8602088BF
:1035F00000050FD5D5F88800616B20F44000084322
:10360000C5F88800606BB0F5800F03D1E86840F41E
:103610008010E8602088C0040FD5D5F88800A16B21
:1036200020F040700843C5F88800A06BB0F1807F9F
:1036300003D1E86840F48010E86020884FF0006112
:1036400080040ED5D5F88800E26B20F0406010436E
:10365000C5F88800E06B884203D1E86840F4801028
:10366000E860208840040ED5D5F88800226C20F050
:1036700040601043C5F88800206C884203D1E86898
:1036800040F48010E860208800040FD5D5F8880049
:10369000616C20F040500843C5F88800606CB0F1C0
:1036A000805F03D1E86840F48030E8602068C003A0
:1036B0000FD5D5F88800A16C20F040400843C5F82C
:1036C0008800A06CB0F1804F03D1E86840F48030EE
:1036D000E860206840030FD5D5F89C00E16C20F429
:1036E00040100843C5F89C00E06CB0F5001F03D102
:1036F000E86840F48010E8603046BDE8F8830000D8
:1037000000100240007000402DE9F0470E46050011
:103710004FF0000725D0DFF8AC81D8F8000000F0AA
:103720000F00B0420CD2D8F8001021F00F01314345
:10373000C8F80010D8F8000000F00F00B04210D117
:103740002968614CC80741F2883A5AD06868DFF8A6
:103750007C91032808D0022820682DD0400500283D
:103760002CDB0120BDE8F08720688001F9D5E068F6
:1037700000F00302E068C0F30310401C032A19D0D4
:10378000534A00BFB2FBF0F0E268C2F30622504396
:10379000E268C2F34162521C5200B0FBF2F04845AD
:1037A00017D9A06810F0F00F0CD0880711D5A868C1
:1037B00040B10EE0474AE5E78003D0E700F0B6F8F5
:1037C000484506D9A06820F0F00040F08000A060D5
:1037D0008027A068696820F003000843A060FFF715
:1037E00015FD814606E000BFFFF710FDA0EB0901C3
:1037F00051453AD8A068696800F00C00B0EB810F21
:10380000F2D12868810714D5400703D5A06840F499
:10381000E060A0602878000705D5A06820F460501B
:1038200040F4E060A060A068A96820F0F0000843C0
:1038300004E0802F03D1A06820F0F000A060D8F849
:103840000010404601F00F01B14216D9016821F085
:103850000F0131430160FFF7D9FC074607E000BFC5
:10386000FFF7D4FCC11B514501D903207AE7D8F8F2
:10387000000000F00F00B042F2D12878400705D5D3
:10388000A068E96820F4E0600843A0602878000799
:1038900006D5A068296920F4605040EAC100A06004
:1038A00000F044F8A1680C4AC1F30311515C01F027
:1038B0001F01C8400949086009480068BDE8F04791
:1038C000FFF7C2BC002002400010024000B4C40454
:1038D0000024F40000366E01D67D00080C000020A4
:1038E000000000200548064900688968054AC1F3C0
:1038F0000221515C01F01F01C84070470C000020FC
:1039000000100240E67D0008054806490068896805
:10391000054AC1F3C221515C01F01F01C840704744
:103920000C00002000100240E67D0008184910B588
:103930008868C0F381021748012A0BD08A68164BA9
:10394000C2F38102022A06D08A68C2F38102032AE6
:1039500003D0002010BD184610BDCA6802F0030451
:10396000CA68C2F30312521C032C02D0B0FBF2F05F
:1039700001E0B3FBF2F0CA68C968C2F30622504303
:10398000C1F34161491C4900B0FBF1F010BD0000DA
:10399000001002400024F40000366E012DE9F843C7
:1039A00004007AD02078FA4DC00747D0A868E968AB
:1039B00000F00C0001F003010C2802D0082817D0F9
:1039C00001E0032914D06068B0F5803F17D0B0F54E
:1039D000A02F286817D020F480302860286820F4B1
:1039E000802028606068E0B1FFF710FC064614E014
:1039F0002868800322D560680028D2D01EE028689D
:103A000040F48030EDE740F480202860F7E700BF05
:103A1000FFF7FCFB801B642870D828688003F7D56B
:103A20000CE0FFF7F3FB064605E000BFFFF7EEFBF7
:103A3000801B6428F0D828688003F7D4207880079A
:103A40004CD5A868E96800F00C0001F003010C28CF
:103A500002D004280DD001E002290AD0E068002835
:103A600028682BD040F480702860FFF7CFFB064613
:103A700019E02868400502D5E068002891D0686800
:103A8000217C20F0FE4040EA01606860C148006887
:103A9000FFF7DAFB002800D120E076E1FFF7B6FB64
:103AA000801B0228B8D828684005F7D56868217CB3
:103AB00020F0FE4040EA016068600FE020F4807072
:103AC0002860FFF7A3FB064605E000BFFFF79EFB5B
:103AD000801B0228A0D828684005F7D4207800076A
:103AE00029D560690028D5F8940013D040F0010072
:103AF000C5F89400FFF78AFB064606E090E000BF99
:103B0000FFF784FB801B022886D8D5F89400800735
:103B1000F6D510E020F00100C5F89400FFF776FB21
:103B2000064604E0FFF772FB801B022878D8D5F820
:103B300094008007F6D42078400761D5A86D002650
:103B4000C00008D4A86D40F08050A865A86D01267B
:103B500000F08050009090480168C90511D40168B8
:103B6000804641F480710160FFF750FB074604E096
:103B7000FFF74CFBC01B022852D8D8F80000C00544
:103B8000F6D5A068012815D00528D5F8900016D0E4
:103B900020F00100C5F89000D5F8900020F0040056
:103BA000C5F89000A06841F28838B8B1FFF72EFB45
:103BB00007460EE0D5F8900040F00100F0E740F035
:103BC0000400C5F89000F5E7FFF720FBC11B414555
:103BD00026D8D5F890008007F6D50CE0FFF716FB45
:103BE000074604E0FFF712FBC11B414518D8D5F882
:103BF00090008007F6D41EB1A86D20F08050A86513
:103C00002078800629D5A0690028D5F8980013D01F
:103C100040F00100C5F89800FFF7F8FA064606E004
:103C200077E000BFFFF7F2FA801B022877D8D5F8BB
:103C300098008007F6D510E020F00100C5F8980044
:103C4000FFF7E4FA064604E0FFF7E0FA801B0228DB
:103C500065D8D5F898008007F6D4E069F0B3A96874
:103C6000C1F38101032961D00228286820F0807007
:103C700028600BD0E86820F00300E860E868474956
:103C80000840E860FFF7C2FA04464BE0FFF7BEFACF
:103C9000064604E0FFF7BAFA801B02283FD82868DE
:103CA0008001F7D4F4E908016FF00F0202EB011173
:103CB0000843218A5204490802EB4151A26841EAB3
:103CC00002210843217D4FF07E42490802EB416109
:103CD0000843217B40EAC160E96800E062E0304AC5
:103CE00011400843E860286840F080702860E86868
:103CF00040F08070E860FFF789FA044605E000BFF5
:103D0000FFF784FA001B022809D828688001F7D53C
:103D100048E004E0FFF77AFA001B022802D90320EA
:103D2000BDE8F88328688001F4D43BE00128F7D08F
:103D3000E868226A00F00301914226D1616A00F02E
:103D4000F0020901103991421FD1A26A00F4FE412C
:103D5000B1EB022F19D194F82C2000F07841B1EB8F
:103D6000C26F12D1218E00F4C00249084905A1F5A5
:103D70000011914209D194F8341000F0C060490854
:103D80004906A1F1007181420CD00120C8E7000072
:103D9000001002400000002000700040FFFFEEFE17
:103DA0000C809F010020BBE770B5040009D0606A59
:103DB000002540B125616561A56294F85D0040B1C0
:103DC0000CE0012070BD6068B0F5827FF4D0E56141
:103DD000F2E784F85C50204600F05CF8022084F89A
:103DE0005D002068016821F040010160E1684FF446
:103DF000E062914201D9002001E04FF48050B1F51A
:103E0000706F02D0914200D0A562A188228901F48E
:103E1000827102F404421143227C02F00202114337
:103E2000227D02F001021143228B02F40072114341
:103E3000227F02F03802114394F8202002F0800221
:103E40001143228D02F40052114322681160A169CE
:103E5000042202EA114194F8242000F4805002F078
:103E60001002114394F8342002F008021143A28991
:103E700002F4706211430143206841602068C16907
:103E800021F40061C1612566012084F85D000020F5
:103E900070BD000010B586B0044614216846FCF7DA
:103EA00001FA1249206888421ED11148016E41F47E
:103EB00080510166016E01F480510591C16C41F0A1
:103EC0000101C164C06C694600F001000590A020AA
:103ED00000900220019000200290039005200490A1
:103EE0004FF09040FFF764F806B010BD003001407D
:103EF000001002402DE9F84F044690F85C000027BE
:103F00001D461646894601280DD04FF0010B84F856
:103F10005CB0FFF77BF9804694F85D00BA46012853
:103F200004D00227A4E00220BDE8F88FB9F1000F09
:103F300074D0002E72D0032084F85D00C4F860A015
:103F4000C4F83890A687E687C4F840A0A4F844A037
:103F5000A4F846A0C4F850A0C4F84CA0A068B0F5DE
:103F6000004F09D12068016821F0400101602068FC
:103F7000016841F48041016020680168490603D46A
:103F8000016841F040010160E068B0F5E06F6068F1
:103F900023D908B1012E1CD1A06B21680088C8600C
:103FA00006E020688168890709D5A16B0988C1608E
:103FB000A06B801CA063E08F401EE08709E0FFF744
:103FC00025F9A0EB0800A84202D3681C01D046E006
:103FD000ADB3E08F0028E4D136E008B1012E30D136
:103FE000E08F0128A06B03D921680088C8600FE02A
:103FF00021680078087314E0E08722E02068816877
:10400000890714D5E18F0129A16B08D90988C160FE
:10401000A06B801CA063E08F801EEDE727E009788D
:104020000173A06B401CA063E08F401EE4E7FFF724
:10403000EDF8A0EB0800A84202D3681C01D00EE006
:104040006DB1E08F0028D9D142462946204601F0C3
:1040500032FC08B120202066A06810B105E00327DB
:1040600006E02068C16880680090206E00B10127DA
:1040700084F85DB084F85CA0384655E710B5401E62
:10408000B0F1807F01D3012010BD4FF0E0246061CA
:104090000F21601702F02CFD0020A0610720206195
:1040A000002010BD7047704770470000F0B590F8D1
:1040B0003C20012A58D0012280F83C20CA688B6835
:1040C00022F440721A434B6822F480621A430B6850
:1040D00022F400621A430B6922F480521A434B699E
:1040E00022F400521A430B6B22F480421A430B8BCA
:1040F00022F4702242EA03421C4C036800271C4D44
:104100001C4EA34203D0AB4201D0B34205D1D1F83B
:104110001CC022F0805242EA0C02A34203D0AB4200
:1041200001D0B3421BD1B1F828C022F4700242EA98
:104130000C52D1F820C022F0807242EA0C02D1F871
:1041400024C022F0007242EA0C02A34203D0AB4228
:1041500001D0B34203D1C96A22F000520A435A6423
:1041600080F83C700020F0BD0220F0BD002C014022
:104170000034014000500140704770477047000014
:10418000F0B590F83C20012A43D0012580F83C503E
:10419000022280F83D2003685A689C681E4E1F4F1B
:1041A000DFF87CC0B34203D0BB4201D0634504D1E9
:1041B00022F4700E4A6842EA0E02DFF868E002EA72
:1041C0000E02D1F800E04EEA020EC3F804E00268E5
:1041D000B24212D0B2F1804F0FD0134B9A420CD0A2
:1041E000124B9A4209D0124B9A4206D0BA4204D0DE
:1041F000104B9A4201D0624504D1896824F08003B3
:104200001943916080F83D50002180F83C10084629
:10421000F0BD0220F0BD0000002C01400034014040
:10422000005001408FFFFFFD0004004000080040E7
:10423000000C004000400140704710B5040003D05E
:1042400094F83D0010B107E0012010BD002084F873
:104250003C00204600F022F8022084F83D00211D99
:10426000206801F071FC012084F8480084F83E00C9
:1042700084F83F0084F8400084F8410084F842004C
:1042800084F8430084F8440084F8450084F846002C
:1042900084F8470084F83D00002010BD08B5114A9D
:1042A00001681148914208D1016E41F480310166E4
:1042B000006E00F48030009008BD0C4A9142FBD1A2
:1042C000016E41F480210166006E002200F480201E
:1042D000009011461A20FEF7FFFFBDE808401A20A3
:1042E000FEF7ECBF004001400010024000480140D2
:1042F00090F83D10012901D001207047022180F87B
:104300003D1000681249884214D0B0F1804F11D09E
:10431000104988420ED0104988420BD00F4988427C
:1043200008D00F49884205D00E49884202D00E4974
:10433000884207D181680D4A1140062906D0B1F59F
:10434000803F03D0016841F0010101600020704707
:10435000002C01400004004000080040000C004018
:1043600000340140004001400050014007000100BE
:1043700090F83D10012901D001207047022180F8FA
:104380003D100168CA6842F00102CA600068134922
:10439000884214D0B0F1804F11D0114988420ED01C
:1043A000104988420BD01049884208D00F498842F2
:1043B00005D00F49884202D00E49884207D1816852
:1043C0000D4A1140062906D0B1F5803F03D001689F
:1043D00041F001010160002070470000002C014005
:1043E0000004004000080040000C00400034014080
:1043F0000040014000500140070001000168CA6808
:1044000022F00102CA6001680A6A41F211131A42DD
:1044100007D10A6A9B001A4203D10A6822F00102FE
:104420000A60012180F83D100020704770B50446F5
:1044300090F83C00002501281CD0012684F83C603F
:10444000022084F83D0022689068334B184020F425
:104450007F4090600868B0F5005F2ED016DC4028E1
:1044600049D009DCD0B1102818D0202816D0302827
:1044700049D113E0022070BD50282AD0602830D0E6
:1044800070280FD0B0F5805F3DD13DE010F00F0FE8
:1044900039D10111A1F58031072934D822680146AC
:1044A000104625E0CB68D1E90121206801F0B6FB78
:1044B0002068816841F0770109E0CB68D1E90121EA
:1044C000206801F0ABFB2068816841F48041816085
:1044D0001AE0CA684968206801F074FD502120681C
:1044E00006E0CA684968206801F07DFD6021206807
:1044F00001F09EFB08E0CA684968206801F062FD8F
:1045000040212068F4E7012584F83D60002084F80C
:104510003C00284670BD000088FFCEFF704770B594
:104520000446006801694FF00005C943890715D4A6
:10453000C168C943890711D4E91E016101202077B0
:10454000206880698007204602D0FFF7E7FF04E07B
:1045500000F034F9204600F01DFA25772068016943
:10456000C943490717D4C168C943490713D46FF039
:1045700004010161022020772068806910F4407FE7
:10458000204602D0FFF7CAFF04E000F017F92046EA
:1045900000F000FA257720680169C943090716D49D
:1045A000C168C943090712D46FF0080101610420F2
:1045B00020772068C0698007204602D0FFF7AEFF51
:1045C00004E000F0FBF8204600F0E4F925772068CD
:1045D0000169C943C90617D4C168C943C90613D4C0
:1045E0006FF010010161082020772068C06910F485
:1045F000407F204602D0FFF791FF04E000F0DEF894
:10460000204600F0C7F9257720680169C943C9072A
:1046100008D1C168C943C90704D1891E0161204678
:1046200000F0BAF920680169C943090609D4C168D4
:10463000C943090605D46FF0800101612046FFF7E8
:1046400032FD20680169C943C90509D4C168C9435D
:10465000090605D46FF4807101612046FFF722FD41
:1046600020680169C943490609D4C168C94349069C
:1046700005D46FF040010161204600F09FF92068E9
:104680000169C943890609D4C168C943890605D4AB
:104690006FF0200101612046FFF706FD20680169E7
:1046A000C943C90209D4C168C943C90205D46FF41A
:1046B000801101612046FFF760FD20680169C94350
:1046C000890209D4C168C943890205D46FF4001175
:1046D00001612046FFF750FD20680169C943490286
:1046E00009D4C168C943490205D46FF4800101614E
:1046F0002046FFF743FD20680169C94309020BD436
:10470000C168C943090207D46FF400010161204662
:10471000BDE87040FFF790BD70BD000070B586B079
:10472000044614216846FBF7BDFD214B2268002496
:10473000204902254FF090409A4210D1CA6C42F0B5
:104740000102CA64C96C01F001010591991500913B
:10475000CDE901540621CDE90341694624E0B2F1D7
:10476000804F23D1CA6C42F00102CA64CA6C02F0C5
:1047700001020592CA6C42F00202CA64C96C0126A9
:1047800001F00201059103210091CDE90154CDE929
:1047900003466946FEF70CFCB0020090CDE90154D7
:1047A000CDE9034669460448FEF702FC06B070BD39
:1047B000002C01400010024000040048704770B512
:1047C000044690F83C0000260D4601280BD001203D
:1047D00084F83C000C2A4AD007DC82B1042A20D09D
:1047E000082A06D131E0022070BD102A53D0142AC5
:1047F00063D00126002084F83C00304670BD20685C
:1048000001F020FA2068816941F008018161206887
:10481000816921F004018161206881692A6911435D
:1048200011E0206801F064FA2068816941F40061B8
:1048300081612068816921F48061816120688169DA
:104840002A6941EA02218161D4E7206801F0A0FAD7
:104850002068C16941F00801C1612068C16921F087
:104860000401C1612068C1692A69114311E020680F
:1048700001F0DEFA2068C16941F40061C16120687D
:10488000C16921F48061C1612068C1692A6941EA76
:104890000221C161AEE7206801F01AFB2068016DBA
:1048A00041F0080101652068016D21F004010165F6
:1048B0002068016D2A69114311E0206801F044FB72
:1048C0002068016D41F4006101652068016D21F4EB
:1048D000806101652068016D2A6941EA0221016554
:1048E00088E710B5040003D094F83D0010B107E04C
:1048F000012010BD002084F83C00204600F022F882
:10490000022084F83D00211D206801F01DF90120DE
:1049100084F8480084F83E0084F83F0084F84000A2
:1049200084F8410084F8420084F8430084F844008D
:1049300084F8450084F8460084F8470084F83D0078
:10494000002010BD08B5114A01681148914211D1EB
:10495000016E41F400610166006E002200F4006007
:10496000009011461A20FEF7B7FCBDE808401A2057
:10497000FEF7A4BCB1F1804F07D1816D41F0010178
:104980008165806D00F00100009008BD002C0140A1
:1049900000100240704700000068B0F1804F04D062
:1049A0000449884204D100F047BB03490120087044
:1049B000704700000048014039000020704790F81F
:1049C0008010012918D0012180F880102421C0F81E
:1049D000841050F8641B0A680B6823F001030B6015
:1049E00022F000510022026050F8643C196020213E
:1049F0000162027710467047022070477047704787
:104A000070B5044690F8800001281DD0012084F87C
:104A100080002420C4F8840020680568026822F021
:104A2000010202602068826822F060620A438260AC
:104A3000204601F0EBFA206805602020C4F88400CD
:104A4000002084F8800070BD022070BD70B504465F
:104A500090F8800001281DD0012084F880002420D7
:104A6000C4F8840020680568026822F00102026030
:104A70002068826822F060420A438260204601F08A
:104A8000C5FA206805602020C4F88400002084F85E
:104A9000800070BD022070BD7047704770470000F5
:104AA00070B50446216851E8000F20F4907041E889
:104AB0000002002AF6D1274A2068083050E8001F7B
:104AC000114040E80013002BF6D1E06E012808D118
:104AD000206850E8001F21F0100140E80012002A71
:104AE000F6D1216888684FF00F0245064FF00000AC
:104AF0004FF0200328D52168083151E8005F25F0E8
:104B0000400541E80056002EF5D1E16F49B1124849
:104B10008863E06FFEF7FBF8A0B1E06F816B884718
:104B200010E0A4F85E00A06521680A6221688A6925
:104B300042F00802C1F81820C4F88830E066204628
:104B4000FFF7ACFF002070BDA4F85E00A0650A620C
:104B5000F2E70000FEFFFFEF8D61000870470000E4
:104B60002DE9F04103680446D86919689A6840F64F
:104B70000F0528424FF0000509D186067ED501F0C9
:104B8000200602F080573E4378D0216F27E1A94EDE
:104B9000A94F16400F40374370D0C70709D0CF0543
:104BA00007D501271F62D4F88C3043F00103C4F805
:104BB0008C3083070AD5D30708D0276802233B62CD
:104BC000D4F88C3043F00403C4F88C3043070AD582
:104BD000D30708D0276804233B62D4F88C3043F015
:104BE0000203C4F88C3003070CD501F020033343D3
:104BF00008D0266808233362D4F88C3043F00803C9
:104C0000C4F88C3003050BD54B0109D526684FF449
:104C100000633362D4F88C3043F02003C4F88C3046
:104C2000D4F88C30002B3AD0800609D501F0200052
:104C300002F08051084303D0216F09B12046884714
:104C4000D4F88C0021688968490602D410F0280F36
:104C500027D0204601F0AEFA2068806840061BD5B8
:104C60002068083050E8001F21F0400140E80012A1
:104C7000002AF5D1E06F78B1704900E017E0816358
:104C8000E06FFEF744F8002809D0E06F816B00E088
:104C90002046BDE8F04108472046FFF75FFFBDE82A
:104CA000F0812046FFF75AFFC4F88C50F7E7E76E13
:104CB0002026012F7ED1C7067CD5CF067AD51020BD
:104CC000186220688068400642D5E16F0868406835
:104CD0000004000CE3D0B4F85C208242DFD9A4F8D1
:104CE0005E000868006880062BD4206850E8001F2A
:104CF00021F4807140E80012002AF6D120680830C3
:104D000050E8001F21F0010140E80012002AF5D10F
:104D10002068083050E8001F21F0400140E80012F0
:104D2000002AF5D1C4F88860E566216851E8000FD3
:104D300020F0100041E80002002AF6D1E06FFDF7F4
:104D4000B1FFB4F85C00B4F85E10401A81B22CE0F8
:104D5000B4F85C00B4F85E10401A81B2B4F85E009A
:104D600000289CD000299AD0226852E8000F20F435
:104D7000907042E80003002BF6D12E4BDB432068F5
:104D8000083050E8002F1A4040E80027002FF6D1E5
:104D9000C4F88860E5662567226852E8000F20F0B5
:104DA000100042E80003002BF6D12046FFF726FE54
:104DB00075E7FFE7C70209D5570207D54FF4801002
:104DC00018622046BDE8F041FFF767BE03060AD52A
:104DD00001F0800302F40002134304D0616F002944
:104DE0007FF456AF5BE7420611D54A060FD5204641
:104DF000016851E8002F22F0400241E80023002B17
:104E0000F6D1C0F88460456700F0ECF847E702028D
:104E100006D54A0004D52046BDE8F041FFF73CBE68
:104E2000C001C5D50029C3DA2046BDE8F041FFF72F
:104E3000E6BD0000010000102001000479610008B7
:104E400010B5040003D0D4F8840010B107E00120AD
:104E500010BD002084F88000204600F027F82420B0
:104E6000C4F884002068016821F001010160204637
:104E700001F0E2FB0128EBD0A06A10B1204601F05E
:104E8000E7F82068416821F490414160206881681A
:104E900021F02A0181602068016841F00101016070
:104EA0002046BDE8104001F037B9000010B59CB0B5
:104EB0000446142115A8FBF7F5F954216846FBF7C1
:104EC000F1F91A49206888422ED101200024CDE949
:104ED00000046846FEF798FA08B1FCF72DFE144866
:104EE000016E41F480410166016E01F480411A9126
:104EF000C16C41F00401C164C06C15A900F004004C
:104F00001A90302015900220CDE916040720CDE933
:104F100018400848FEF74CF8002211462520FEF7FD
:104F2000DBF92520FEF7CAF91CB010BD003801409E
:104F3000001002400008004830B4D0F88830202B20
:104F400020D1E1B1DAB190F88030012B1AD00123E1
:104F500080F880300023C3660B4C0368A3420BD05B
:104F60005B681B0208D5046854E8003F43F0806387
:104F700044E80035002DF6D130BC01F0A9BC012079
:104F800030BC70470220FBE70080004070B500682D
:104F9000104988421DD1104C21780A290BD00F4AA4
:104FA00060881154401C6080BDE8704001220A49AD
:104FB0000B48FFF7C1BF094802F0DFFA606001F05B
:104FC000A7FD0025257080210448FBF76BF965805B
:104FD000EAE770BD003801401000002054030020B3
:104FE000C40200207047FEE710B50648FFF7C0F97D
:104FF0000548FFF7BDF9BDE8104001220349044808
:10500000FFF79ABF2C020020780200201000002039
:10501000C402002010B50548FFF7F0F90448FFF777
:10502000EDF9BDE810400348FFF73ABD2C0200201F
:1050300078020020C402002070B52C4D02212846C1
:10504000FEF7DAF82A4C012120802846FEF7D4F832
:10505000284D608008212846FEF7CEF8A080102158
:105060002846FEF7C9F8E080002004F10802012577
:105070000346A2F1100100BF31F8106026B1012EE5
:105080000AD0022E2DD116E034F8106036BB21F87C
:10509000105022F8103024E032F81060761CB6B2BE
:1050A00022F810600A2E1CD934F81060BEB902260E
:1050B00021F8106015E032F81060761CB6B222F8C4
:1050C0001060B6F5C87F0AD234F81060012E08D1FE
:1050D000074E21F81030103626F8105001E021F864
:1050E0001030401CC0B20428C6D370BD0008004870
:1050F00020000020000400484FF0904240219161C0
:105100000146014800F0C8BC003001404FF0904219
:10511000402191620146014800F0BEBC00300140D0
:1051200000EB8100006E00F0F84070478068C0F32B
:10513000C00070478068C0F3800070478068C0F38B
:1051400080007047C06810F4406F01D000207047A5
:1051500001207047042303EAD15310B51844436972
:10516000C1F3045107248C40A3438A401343436195
:1051700010BD00EB8100016E21F00041114301667A
:10518000704700002DE9F04105460021EF2340F271
:105190003F12084600F039F94FF0904140208861F5
:1051A000094E00244FF496374FEA15284146304601
:1051B00000F072FCE9B2304600F06EFC641CBC42A8
:1051C000F4D3BDE8F08100000030014010B500F0DC
:1051D0000AF9CF20FFF79AFF0020FFF78DFFC320C9
:1051E000FFF78AFF3020FFF787FFED20FFF78EFFE4
:1051F0006420FFF781FF0320FFF77EFF1220FFF7F7
:105200007BFF8120FFF778FFE820FFF77FFF8520F5
:10521000FFF772FF0020FFF76FFF7820FFF76CFFAA
:10522000CB20FFF773FF3920FFF766FF2C20FFF735
:1052300063FF0020FFF760FF3420FFF75DFF0220CF
:10524000FFF75AFFF720FFF761FF2020FFF754FF19
:10525000EA20FFF75BFF0020FFF74EFF0020FFF77B
:105260004BFFC020FFF752FF1B20FFF745FFC12077
:10527000FFF74CFF1220FFF73FFFC520FFF746FF67
:105280003220FFF739FF3C20FFF736FFC720FFF73A
:105290003DFFAF20FFF730FF3620FFF737FF082034
:1052A000FFF72AFF2120FFF731FF3A20FFF72EFFFB
:1052B0005520FFF721FFB120FFF728FF0020FFF75F
:1052C0001BFF1B20FFF718FFB420FFF71FFF042070
:1052D000FFF712FFB620FFF719FF0A20FFF70CFFB8
:1052E000A220FFF709FFF620FFF710FF0120FFF7CC
:1052F00003FF3020FFF700FFF220FFF707FF002039
:10530000FFF7FAFE2620FFF701FF0120FFF7F4FE6A
:10531000E020FFF7FBFE0F20FFF7EEFE1D20FFF75A
:10532000EBFE1A20FFF7E8FE0A20FFF7E5FE0D204E
:10533000FFF7E2FE0720FFF7DFFE4920FFF7DCFE64
:105340006620FFF7D9FE3B20FFF7D6FE0720FFF7C8
:10535000D3FE1120FFF7D0FE0120FFF7CDFE09207C
:10536000FFF7CAFE0520FFF7C7FE0420FFF7C4FEC3
:10537000E120FFF7CBFE0020FFF7BEFE1820FFF76D
:10538000BBFE1D20FFF7B8FE0220FFF7B5FE0F2081
:10539000FFF7B2FE0420FFF7AFFE3620FFF7ACFEAA
:1053A0001320FFF7A9FE4C20FFF7A6FE0720FFF70A
:1053B000A3FE1320FFF7A0FE0F20FFF79DFE2E2077
:1053C000FFF79AFE2F20FFF797FE0520FFF794FEC8
:1053D0001120FFF79BFE7820FDF7D8FDBDE81040B7
:1053E0002920FFF793BE70B54FF090441025A561BA
:1053F0000A20FDF7CBFDA5626420FDF7C7FDA5617E
:10540000BDE870406420FDF7C1BD2DE9F0410446C0
:105410001D4616460F462A20FFF778FE204600F06C
:1054200025F8304600F022F82B20FFF76FFE3846B3
:1054300000F01CF8284600F019F8BDE8F0412C20D7
:10544000FFF764BE70B504460D462A20FFF75EFEE6
:10545000204600F00BF82B20FFF758FE284600F0FE
:1054600005F8BDE870402C20FFF750BE10B504468B
:10547000000AFFF741FEE0B2BDE81040FFF73CBE76
:1054800030B58BB0002408940994202168460A9412
:10549000FAF708FF1E484FF0A041042501604FF4C1
:1054A0004031C0E90114C4600461C0E905450477D6
:1054B00044770121016280F824404FF4B862C2624F
:1054C0008A02026380F838100903C16380F8404003
:1054D000FDF7DEF908B1FCF72FFB08A90C4808948A
:1054E000FCF7F2FE08B1FCF727FB0A480090062003
:1054F000CDE901047F200594CDE903056946044800
:10550000FCF792FF002801D0FCF716FB0BB030BD72
:10551000640000200080F03E114808B5816C41F025
:1055200004018164816C01F004010091816C41F0FF
:1055300001018164806C002200F00100009011469E
:105540000B20FDF7C9FE0B20FDF7B8FE0022114627
:105550005E20FDF7C1FEBDE808405E20FDF7AEBE4F
:105560000010024030B587B014216846FAF79AFE61
:105570002248C16C41F00401C164C16C01F0040116
:105580000591C16C41F02001C164C16C01F02001A2
:105590000591C16C41F00101C164C16C01F00101D0
:1055A0000591C16C41F00201C164C06C4FF090459F
:1055B00000F002000590002250212846FDF721FE50
:1055C00000240320CDE9000469460D480294FDF74C
:1055D000EFFC502000900120CDE9010469462846E7
:1055E0000394FDF7E5FC1820CDE900046946054861
:1055F0000294FDF7DDFC07B030BD00000010024052
:105600000008004800040048144810B51249016021
:105610004FF4827141604FF4004181604FF4E061CA
:10562000C1600221016100214FF40072C0E905123E
:105630001022C0E9072107224162C0E90A12016372
:1056400008214163FEF7B0FB002803D0BDE81040FD
:10565000FCF772BA10BD000000300140300100209C
:1056600010B588B000241848009401940294039463
:10567000049405941349069401602721C0E901149C
:10568000C0E903148021C0E90541FEF7D6FD08B149
:10569000FCF752FA4FF48050009069460A48FEF732
:1056A000C5FE08B1FCF748FA2020049004A906942E
:1056B0000548FEF765FD002801D0FCF73DFA08B06B
:1056C00010BD0000004001402C0200200C4810B525
:1056D0000A4901609F214160002140F2E732C0E9A0
:1056E00002120161416180218161FEF7A6FD00285F
:1056F00003D0BDE81040FCF71FBA10BD00480140C0
:105700007802002010B598B00024149415941C2140
:105710000DA81694FAF7C6FD34216846FAF7C2FDC3
:105720002448234901609F21C0E9011440F2E73178
:10573000C0E9031444618461FFF7D3F808B1FCF7B2
:10574000FBF91494159414A91A481694FEF718FD41
:1057500008B1FCF7F1F96020CDE90D040F94109425
:105760001194129400220DA912481394FFF727F800
:1057700008B1FCF7E1F900944FF40050CDE9044082
:1057800003940003CDE90840019402940694079421
:105790000A940B94694607480C94FEF787FC08B1FD
:1057A000FCF7CAF90348FEF7B9FF18B010BD0000B6
:1057B000002C01409401002010B58AB00024079409
:1057C00008941C2168460994FAF76CFD1D484FF0B7
:1057D000804101609F21C0E9011440F2E731C0E936
:1057E00003148461FFF77DF808B1FCF7A5F907946D
:1057F00007A914480994FEF7C3FC08B1FCF79CF90B
:105800006020CDE900040294002269460D4804940A
:10581000FEF7D5FF08B1FCF78FF904226946094865
:10582000FEF7CDFF08B1FCF787F908226946054865
:10583000FEF7C5FF08B1FCF77FF90248FEF76EFFDF
:105840000AB010BDE0010020184810B516490160EB
:105850004FF4E1314160002181600C22C160C0E958
:1058600004128161C161016241628162FFF7E8FA5D
:1058700008B1FCF761F900210C48FFF7E7F808B11F
:10588000FCF75AF900210948FFF7BAF808B1FCF70C
:1058900053F90648FFF793F8002803D0BDE81040FD
:1058A000FCF74AB910BD000000380140C4020020D6
:1058B000FEE7FEE77047F8B515460E460B46009228
:1058C000044600224FF4C05100F01AF888B933465C
:1058D000002280212046009500F082F848B9334626
:1058E00000224FF4C0612046009500F009F800281E
:1058F00004D0206E40F0200020660320F8BD000098
:105900002DE9FE4F4FF0000A984617460E46044612
:105910000C9D8DF804A0FDF779FC411BA8EB010557
:10592000FDF774FC814620684FF4C06B0C30029088
:105930002A480068C0EBC00000EB8000000D6843FF
:10594000009043E05E4506D12FB9029800788DF8AB
:1059500004009DF80400B8F1FF3F37D0FDF756FC76
:10596000A0EB0900A84203D215B1009858B32BE070
:105970002068416821F0E00141606068B0F5827FF5
:105980000BD1A068B0F5004F02D0B0F5806F04D104
:105990002068016821F040010160A06AB0F5005F55
:1059A00009D12068016821F4005101602068016874
:1059B00041F400510160012084F85D0084F85CA08E
:1059C0000320BDE8FE8F0025401E009020688068FF
:1059D0003040B842B6D10020F3E700000C000020B0
:1059E0002DE9F8431E46914688460446089DFDF77A
:1059F0000DFC401B351AFDF709FC074625480068D9
:105A0000C0F3CB30684338E0701C37D0FDF7FEFBA5
:105A1000C01BA84203D215B1009860B32CE02068E7
:105A2000416821F0E00141606068B0F5827F0BD1F0
:105A3000A068B0F5004F02D0B0F5806F04D12068A7
:105A4000016821F040010160A06AB0F5005F09D152
:105A50002068016821F4005101602068016841F468
:105A600000510160012084F85D00002084F85C0092
:105A70000320BDE8F8830025401E0090206881685F
:105A800038EA010004D000214945BDD10020F0E7EB
:105A90000121F9E70C00002013B5FF23012201A921
:105AA0000148FEF727FA1CBD300100207047FDF7C2
:105AB000B3BB00B593B038216846FAF7F3FB142165
:105AC0000EA8FAF7EFFB0020FDF738FC0220C10119
:105AD0000391402104910121CDE908010090142196
